{
  "_format": "hh-sol-artifact-1",
  "contractName": "CommunityNetwork",
  "sourceName": "contracts/CommunityNetwork.sol",
  "abi": [
    {
      "inputs": [
        {
          "internalType": "address",
          "name": "_treasury",
          "type": "address"
        },
        {
          "internalType": "contract LinkTokenInterface",
          "name": "_link",
          "type": "address"
        },
        {
          "internalType": "address",
          "name": "_registrar",
          "type": "address"
        },
        {
          "internalType": "contract AutomationRegistryInterface",
          "name": "_registry",
          "type": "address"
        }
      ],
      "stateMutability": "nonpayable",
      "type": "constructor"
    },
    {
      "inputs": [],
      "name": "AlreadyAMember",
      "type": "error"
    },
    {
      "inputs": [],
      "name": "AlreadyANutrionist",
      "type": "error"
    },
    {
      "inputs": [],
      "name": "InsufficientPayment",
      "type": "error"
    },
    {
      "inputs": [],
      "name": "InvalidApplicant",
      "type": "error"
    },
    {
      "inputs": [],
      "name": "InvalidDeadline",
      "type": "error"
    },
    {
      "inputs": [],
      "name": "InvalidSubStatus",
      "type": "error"
    },
    {
      "inputs": [
        {
          "internalType": "string",
          "name": "message",
          "type": "string"
        }
      ],
      "name": "UnauthorizedApplication",
      "type": "error"
    },
    {
      "inputs": [
        {
          "internalType": "address",
          "name": "caller",
          "type": "address"
        }
      ],
      "name": "UnauthorizedMember",
      "type": "error"
    },
    {
      "inputs": [
        {
          "internalType": "address",
          "name": "caller",
          "type": "address"
        }
      ],
      "name": "UnauthorizedNutritionist",
      "type": "error"
    },
    {
      "anonymous": false,
      "inputs": [
        {
          "indexed": false,
          "internalType": "address",
          "name": "applicant",
          "type": "address"
        }
      ],
      "name": "ApplicationApproved",
      "type": "event"
    },
    {
      "anonymous": false,
      "inputs": [
        {
          "indexed": false,
          "internalType": "address",
          "name": "applicant",
          "type": "address"
        },
        {
          "indexed": false,
          "internalType": "string",
          "name": "dataURI",
          "type": "string"
        }
      ],
      "name": "NewApplication",
      "type": "event"
    },
    {
      "anonymous": false,
      "inputs": [
        {
          "indexed": false,
          "internalType": "address",
          "name": "user",
          "type": "address"
        },
        {
          "indexed": false,
          "internalType": "string",
          "name": "dataURI",
          "type": "string"
        }
      ],
      "name": "NewSignUp",
      "type": "event"
    },
    {
      "anonymous": false,
      "inputs": [
        {
          "indexed": true,
          "internalType": "address",
          "name": "previousOwner",
          "type": "address"
        },
        {
          "indexed": true,
          "internalType": "address",
          "name": "newOwner",
          "type": "address"
        }
      ],
      "name": "OwnershipTransferred",
      "type": "event"
    },
    {
      "inputs": [
        {
          "internalType": "uint256",
          "name": "",
          "type": "uint256"
        }
      ],
      "name": "allArticles",
      "outputs": [
        {
          "internalType": "string",
          "name": "title",
          "type": "string"
        },
        {
          "internalType": "address",
          "name": "author",
          "type": "address"
        },
        {
          "internalType": "string",
          "name": "authorName",
          "type": "string"
        },
        {
          "internalType": "string",
          "name": "content",
          "type": "string"
        }
      ],
      "stateMutability": "view",
      "type": "function"
    },
    {
      "inputs": [
        {
          "internalType": "uint256",
          "name": "",
          "type": "uint256"
        }
      ],
      "name": "allCommunities",
      "outputs": [
        {
          "internalType": "uint256",
          "name": "id",
          "type": "uint256"
        },
        {
          "internalType": "string",
          "name": "name",
          "type": "string"
        },
        {
          "internalType": "string",
          "name": "communityDescription",
          "type": "string"
        }
      ],
      "stateMutability": "view",
      "type": "function"
    },
    {
      "inputs": [
        {
          "internalType": "uint256",
          "name": "",
          "type": "uint256"
        }
      ],
      "name": "allFitnessPlans",
      "outputs": [
        {
          "internalType": "string",
          "name": "name",
          "type": "string"
        },
        {
          "internalType": "string",
          "name": "fitnessDescription",
          "type": "string"
        },
        {
          "internalType": "address",
          "name": "creator",
          "type": "address"
        }
      ],
      "stateMutability": "view",
      "type": "function"
    },
    {
      "inputs": [
        {
          "internalType": "uint256",
          "name": "",
          "type": "uint256"
        }
      ],
      "name": "allMealPlans",
      "outputs": [
        {
          "internalType": "string",
          "name": "mealName",
          "type": "string"
        },
        {
          "internalType": "string",
          "name": "mealDescription",
          "type": "string"
        },
        {
          "internalType": "address",
          "name": "creator",
          "type": "address"
        }
      ],
      "stateMutability": "view",
      "type": "function"
    },
    {
      "inputs": [
        {
          "internalType": "uint256",
          "name": "",
          "type": "uint256"
        }
      ],
      "name": "allNutritionists",
      "outputs": [
        {
          "internalType": "string",
          "name": "nutritionistPersonalData",
          "type": "string"
        },
        {
          "internalType": "address",
          "name": "nutritionistAddress",
          "type": "address"
        },
        {
          "components": [
            {
              "internalType": "address",
              "name": "consultant",
              "type": "address"
            },
            {
              "internalType": "string",
              "name": "consultationDescription",
              "type": "string"
            }
          ],
          "internalType": "struct CommunityNetwork.ConsultationServices",
          "name": "consultationServices",
          "type": "tuple"
        }
      ],
      "stateMutability": "view",
      "type": "function"
    },
    {
      "inputs": [
        {
          "internalType": "uint256",
          "name": "",
          "type": "uint256"
        }
      ],
      "name": "allNutritionistsAddresses",
      "outputs": [
        {
          "internalType": "address",
          "name": "",
          "type": "address"
        }
      ],
      "stateMutability": "view",
      "type": "function"
    },
    {
      "inputs": [
        {
          "internalType": "uint256",
          "name": "",
          "type": "uint256"
        }
      ],
      "name": "allNutritionistsApplicants",
      "outputs": [
        {
          "internalType": "address",
          "name": "",
          "type": "address"
        }
      ],
      "stateMutability": "view",
      "type": "function"
    },
    {
      "inputs": [
        {
          "internalType": "uint256",
          "name": "",
          "type": "uint256"
        }
      ],
      "name": "allNutritionistsApplications",
      "outputs": [
        {
          "internalType": "string",
          "name": "dataURI",
          "type": "string"
        },
        {
          "internalType": "address",
          "name": "nutritionistAddress",
          "type": "address"
        },
        {
          "internalType": "enum CommunityNetwork.NutritionistApplicationStatus",
          "name": "applicationStatus",
          "type": "uint8"
        }
      ],
      "stateMutability": "view",
      "type": "function"
    },
    {
      "inputs": [
        {
          "internalType": "uint256",
          "name": "",
          "type": "uint256"
        }
      ],
      "name": "allUserAddresses",
      "outputs": [
        {
          "internalType": "address",
          "name": "",
          "type": "address"
        }
      ],
      "stateMutability": "view",
      "type": "function"
    },
    {
      "inputs": [
        {
          "internalType": "uint256",
          "name": "",
          "type": "uint256"
        }
      ],
      "name": "allUsers",
      "outputs": [
        {
          "internalType": "address",
          "name": "userAddress",
          "type": "address"
        },
        {
          "internalType": "string",
          "name": "userPersonalData",
          "type": "string"
        },
        {
          "internalType": "enum CommunityNetwork.UserSubscriptionStatus",
          "name": "subStatus",
          "type": "uint8"
        },
        {
          "internalType": "uint256",
          "name": "subDeadline",
          "type": "uint256"
        }
      ],
      "stateMutability": "view",
      "type": "function"
    },
    {
      "inputs": [
        {
          "internalType": "address",
          "name": "",
          "type": "address"
        }
      ],
      "name": "applicantToIndex",
      "outputs": [
        {
          "internalType": "uint256",
          "name": "",
          "type": "uint256"
        }
      ],
      "stateMutability": "view",
      "type": "function"
    },
    {
      "inputs": [
        {
          "internalType": "string",
          "name": "dataURI",
          "type": "string"
        }
      ],
      "name": "applyForNutritionistRole",
      "outputs": [],
      "stateMutability": "payable",
      "type": "function"
    },
    {
      "inputs": [
        {
          "internalType": "address",
          "name": "applicant",
          "type": "address"
        },
        {
          "internalType": "string",
          "name": "nutritionistNftUri",
          "type": "string"
        }
      ],
      "name": "approveNutritionistRole",
      "outputs": [],
      "stateMutability": "nonpayable",
      "type": "function"
    },
    {
      "inputs": [],
      "name": "cancelNutritionistApplication",
      "outputs": [],
      "stateMutability": "nonpayable",
      "type": "function"
    },
    {
      "inputs": [
        {
          "internalType": "bytes",
          "name": "",
          "type": "bytes"
        }
      ],
      "name": "checkUpkeep",
      "outputs": [
        {
          "internalType": "bool",
          "name": "upkeepNeeded",
          "type": "bool"
        },
        {
          "internalType": "bytes",
          "name": "performData",
          "type": "bytes"
        }
      ],
      "stateMutability": "view",
      "type": "function"
    },
    {
      "inputs": [
        {
          "internalType": "string",
          "name": "name",
          "type": "string"
        },
        {
          "internalType": "string",
          "name": "communityDesc",
          "type": "string"
        },
        {
          "internalType": "address[]",
          "name": "_members",
          "type": "address[]"
        }
      ],
      "name": "createCommunity",
      "outputs": [],
      "stateMutability": "nonpayable",
      "type": "function"
    },
    {
      "inputs": [
        {
          "internalType": "string",
          "name": "_consultationDesc",
          "type": "string"
        }
      ],
      "name": "createConsultation",
      "outputs": [],
      "stateMutability": "nonpayable",
      "type": "function"
    },
    {
      "inputs": [
        {
          "internalType": "string",
          "name": "_fitnessName",
          "type": "string"
        },
        {
          "internalType": "string",
          "name": "fitnessDesc",
          "type": "string"
        }
      ],
      "name": "createFitnessPlan",
      "outputs": [],
      "stateMutability": "nonpayable",
      "type": "function"
    },
    {
      "inputs": [
        {
          "internalType": "string",
          "name": "_mealName",
          "type": "string"
        },
        {
          "internalType": "string",
          "name": "mealPlanDesc",
          "type": "string"
        }
      ],
      "name": "createMealPlan",
      "outputs": [],
      "stateMutability": "nonpayable",
      "type": "function"
    },
    {
      "inputs": [],
      "name": "getAllArticles",
      "outputs": [
        {
          "components": [
            {
              "internalType": "string",
              "name": "title",
              "type": "string"
            },
            {
              "internalType": "address",
              "name": "author",
              "type": "address"
            },
            {
              "internalType": "string",
              "name": "authorName",
              "type": "string"
            },
            {
              "internalType": "string",
              "name": "content",
              "type": "string"
            }
          ],
          "internalType": "struct CommunityNetwork.Articles[]",
          "name": "",
          "type": "tuple[]"
        }
      ],
      "stateMutability": "view",
      "type": "function"
    },
    {
      "inputs": [],
      "name": "getAllCommunties",
      "outputs": [
        {
          "components": [
            {
              "internalType": "uint256",
              "name": "id",
              "type": "uint256"
            },
            {
              "internalType": "string",
              "name": "name",
              "type": "string"
            },
            {
              "internalType": "string",
              "name": "communityDescription",
              "type": "string"
            },
            {
              "internalType": "address[]",
              "name": "members",
              "type": "address[]"
            }
          ],
          "internalType": "struct CommunityNetwork.Community[]",
          "name": "",
          "type": "tuple[]"
        }
      ],
      "stateMutability": "view",
      "type": "function"
    },
    {
      "inputs": [],
      "name": "getAllFitnessPlans",
      "outputs": [
        {
          "components": [
            {
              "internalType": "string",
              "name": "name",
              "type": "string"
            },
            {
              "internalType": "string",
              "name": "fitnessDescription",
              "type": "string"
            },
            {
              "internalType": "address",
              "name": "creator",
              "type": "address"
            }
          ],
          "internalType": "struct CommunityNetwork.FitnessPlans[]",
          "name": "",
          "type": "tuple[]"
        }
      ],
      "stateMutability": "view",
      "type": "function"
    },
    {
      "inputs": [],
      "name": "getAllMealPlans",
      "outputs": [
        {
          "components": [
            {
              "internalType": "string",
              "name": "mealName",
              "type": "string"
            },
            {
              "internalType": "string",
              "name": "mealDescription",
              "type": "string"
            },
            {
              "internalType": "address",
              "name": "creator",
              "type": "address"
            }
          ],
          "internalType": "struct CommunityNetwork.MealPlans[]",
          "name": "",
          "type": "tuple[]"
        }
      ],
      "stateMutability": "view",
      "type": "function"
    },
    {
      "inputs": [],
      "name": "getAllMembers",
      "outputs": [
        {
          "components": [
            {
              "internalType": "address",
              "name": "userAddress",
              "type": "address"
            },
            {
              "internalType": "string",
              "name": "userPersonalData",
              "type": "string"
            },
            {
              "internalType": "enum CommunityNetwork.UserSubscriptionStatus",
              "name": "subStatus",
              "type": "uint8"
            },
            {
              "internalType": "uint256",
              "name": "subDeadline",
              "type": "uint256"
            }
          ],
          "internalType": "struct CommunityNetwork.User[]",
          "name": "_users",
          "type": "tuple[]"
        }
      ],
      "stateMutability": "view",
      "type": "function"
    },
    {
      "inputs": [],
      "name": "getAllNutritionists",
      "outputs": [
        {
          "components": [
            {
              "internalType": "string",
              "name": "nutritionistPersonalData",
              "type": "string"
            },
            {
              "components": [
                {
                  "internalType": "string",
                  "name": "mealName",
                  "type": "string"
                },
                {
                  "internalType": "string",
                  "name": "mealDescription",
                  "type": "string"
                },
                {
                  "internalType": "address",
                  "name": "creator",
                  "type": "address"
                }
              ],
              "internalType": "struct CommunityNetwork.MealPlans[]",
              "name": "nutritionistMealplans",
              "type": "tuple[]"
            },
            {
              "internalType": "address",
              "name": "nutritionistAddress",
              "type": "address"
            },
            {
              "components": [
                {
                  "internalType": "string",
                  "name": "name",
                  "type": "string"
                },
                {
                  "internalType": "string",
                  "name": "fitnessDescription",
                  "type": "string"
                },
                {
                  "internalType": "address",
                  "name": "creator",
                  "type": "address"
                }
              ],
              "internalType": "struct CommunityNetwork.FitnessPlans[]",
              "name": "fitnessPlans",
              "type": "tuple[]"
            },
            {
              "components": [
                {
                  "internalType": "address",
                  "name": "consultant",
                  "type": "address"
                },
                {
                  "internalType": "string",
                  "name": "consultationDescription",
                  "type": "string"
                }
              ],
              "internalType": "struct CommunityNetwork.ConsultationServices",
              "name": "consultationServices",
              "type": "tuple"
            },
            {
              "components": [
                {
                  "internalType": "string",
                  "name": "title",
                  "type": "string"
                },
                {
                  "internalType": "address",
                  "name": "author",
                  "type": "address"
                },
                {
                  "internalType": "string",
                  "name": "authorName",
                  "type": "string"
                },
                {
                  "internalType": "string",
                  "name": "content",
                  "type": "string"
                }
              ],
              "internalType": "struct CommunityNetwork.Articles[]",
              "name": "nutritionistArticles",
              "type": "tuple[]"
            }
          ],
          "internalType": "struct CommunityNetwork.Nutritionist[]",
          "name": "_nutritionists",
          "type": "tuple[]"
        }
      ],
      "stateMutability": "view",
      "type": "function"
    },
    {
      "inputs": [],
      "name": "i_link",
      "outputs": [
        {
          "internalType": "contract LinkTokenInterface",
          "name": "",
          "type": "address"
        }
      ],
      "stateMutability": "view",
      "type": "function"
    },
    {
      "inputs": [],
      "name": "i_registry",
      "outputs": [
        {
          "internalType": "contract AutomationRegistryInterface",
          "name": "",
          "type": "address"
        }
      ],
      "stateMutability": "view",
      "type": "function"
    },
    {
      "inputs": [
        {
          "internalType": "uint256",
          "name": "",
          "type": "uint256"
        }
      ],
      "name": "idToCommunity",
      "outputs": [
        {
          "internalType": "uint256",
          "name": "id",
          "type": "uint256"
        },
        {
          "internalType": "string",
          "name": "name",
          "type": "string"
        },
        {
          "internalType": "string",
          "name": "communityDescription",
          "type": "string"
        }
      ],
      "stateMutability": "view",
      "type": "function"
    },
    {
      "inputs": [
        {
          "internalType": "uint256",
          "name": "_communityId",
          "type": "uint256"
        }
      ],
      "name": "joinCommunity",
      "outputs": [],
      "stateMutability": "nonpayable",
      "type": "function"
    },
    {
      "inputs": [],
      "name": "nutritionistApplicationFee",
      "outputs": [
        {
          "internalType": "uint256",
          "name": "",
          "type": "uint256"
        }
      ],
      "stateMutability": "view",
      "type": "function"
    },
    {
      "inputs": [
        {
          "internalType": "address",
          "name": "",
          "type": "address"
        }
      ],
      "name": "nutritionistApplicationStatus",
      "outputs": [
        {
          "internalType": "enum CommunityNetwork.NutritionistApplicationStatus",
          "name": "",
          "type": "uint8"
        }
      ],
      "stateMutability": "view",
      "type": "function"
    },
    {
      "inputs": [
        {
          "internalType": "address",
          "name": "",
          "type": "address"
        }
      ],
      "name": "nutritionistApplications",
      "outputs": [
        {
          "internalType": "string",
          "name": "dataURI",
          "type": "string"
        },
        {
          "internalType": "address",
          "name": "nutritionistAddress",
          "type": "address"
        },
        {
          "internalType": "enum CommunityNetwork.NutritionistApplicationStatus",
          "name": "applicationStatus",
          "type": "uint8"
        }
      ],
      "stateMutability": "view",
      "type": "function"
    },
    {
      "inputs": [],
      "name": "nutritionistNFT",
      "outputs": [
        {
          "internalType": "contract INutritionistNFT",
          "name": "",
          "type": "address"
        }
      ],
      "stateMutability": "view",
      "type": "function"
    },
    {
      "inputs": [
        {
          "internalType": "address",
          "name": "",
          "type": "address"
        }
      ],
      "name": "nutritionists",
      "outputs": [
        {
          "internalType": "string",
          "name": "nutritionistPersonalData",
          "type": "string"
        },
        {
          "internalType": "address",
          "name": "nutritionistAddress",
          "type": "address"
        },
        {
          "components": [
            {
              "internalType": "address",
              "name": "consultant",
              "type": "address"
            },
            {
              "internalType": "string",
              "name": "consultationDescription",
              "type": "string"
            }
          ],
          "internalType": "struct CommunityNetwork.ConsultationServices",
          "name": "consultationServices",
          "type": "tuple"
        }
      ],
      "stateMutability": "view",
      "type": "function"
    },
    {
      "inputs": [],
      "name": "owner",
      "outputs": [
        {
          "internalType": "address",
          "name": "",
          "type": "address"
        }
      ],
      "stateMutability": "view",
      "type": "function"
    },
    {
      "inputs": [
        {
          "internalType": "bytes",
          "name": "performData",
          "type": "bytes"
        }
      ],
      "name": "performUpkeep",
      "outputs": [],
      "stateMutability": "nonpayable",
      "type": "function"
    },
    {
      "inputs": [
        {
          "internalType": "string",
          "name": "_title",
          "type": "string"
        },
        {
          "internalType": "string",
          "name": "_authorName",
          "type": "string"
        },
        {
          "internalType": "string",
          "name": "_content",
          "type": "string"
        }
      ],
      "name": "publishArticle",
      "outputs": [],
      "stateMutability": "nonpayable",
      "type": "function"
    },
    {
      "inputs": [
        {
          "internalType": "string",
          "name": "name",
          "type": "string"
        },
        {
          "internalType": "bytes",
          "name": "encryptedEmail",
          "type": "bytes"
        },
        {
          "internalType": "address",
          "name": "upkeepContract",
          "type": "address"
        },
        {
          "internalType": "uint32",
          "name": "gasLimit",
          "type": "uint32"
        },
        {
          "internalType": "address",
          "name": "adminAddress",
          "type": "address"
        },
        {
          "internalType": "bytes",
          "name": "checkData",
          "type": "bytes"
        },
        {
          "internalType": "uint96",
          "name": "amount",
          "type": "uint96"
        },
        {
          "internalType": "uint8",
          "name": "source",
          "type": "uint8"
        }
      ],
      "name": "registerAndPredictID",
      "outputs": [],
      "stateMutability": "nonpayable",
      "type": "function"
    },
    {
      "inputs": [
        {
          "internalType": "string",
          "name": "_userData",
          "type": "string"
        },
        {
          "internalType": "string",
          "name": "nftUri",
          "type": "string"
        }
      ],
      "name": "registerUser",
      "outputs": [],
      "stateMutability": "payable",
      "type": "function"
    },
    {
      "inputs": [],
      "name": "registrar",
      "outputs": [
        {
          "internalType": "address",
          "name": "",
          "type": "address"
        }
      ],
      "stateMutability": "view",
      "type": "function"
    },
    {
      "inputs": [
        {
          "internalType": "address",
          "name": "applicant",
          "type": "address"
        }
      ],
      "name": "rejectNutritionistRole",
      "outputs": [],
      "stateMutability": "nonpayable",
      "type": "function"
    },
    {
      "inputs": [
        {
          "internalType": "string",
          "name": "nftUri",
          "type": "string"
        }
      ],
      "name": "renewSubscription",
      "outputs": [],
      "stateMutability": "nonpayable",
      "type": "function"
    },
    {
      "inputs": [],
      "name": "renounceOwnership",
      "outputs": [],
      "stateMutability": "nonpayable",
      "type": "function"
    },
    {
      "inputs": [
        {
          "internalType": "address",
          "name": "_member",
          "type": "address"
        }
      ],
      "name": "revokeUser",
      "outputs": [],
      "stateMutability": "nonpayable",
      "type": "function"
    },
    {
      "inputs": [
        {
          "internalType": "address",
          "name": "_userNFT",
          "type": "address"
        },
        {
          "internalType": "address",
          "name": "_nutritionistNFT",
          "type": "address"
        }
      ],
      "name": "setNFTs",
      "outputs": [],
      "stateMutability": "nonpayable",
      "type": "function"
    },
    {
      "inputs": [],
      "name": "subscriptionDuration",
      "outputs": [
        {
          "internalType": "uint256",
          "name": "",
          "type": "uint256"
        }
      ],
      "stateMutability": "view",
      "type": "function"
    },
    {
      "inputs": [
        {
          "internalType": "address",
          "name": "newOwner",
          "type": "address"
        }
      ],
      "name": "transferOwnership",
      "outputs": [],
      "stateMutability": "nonpayable",
      "type": "function"
    },
    {
      "inputs": [],
      "name": "treasury",
      "outputs": [
        {
          "internalType": "address",
          "name": "",
          "type": "address"
        }
      ],
      "stateMutability": "view",
      "type": "function"
    },
    {
      "inputs": [],
      "name": "userApplicationFee",
      "outputs": [
        {
          "internalType": "uint256",
          "name": "",
          "type": "uint256"
        }
      ],
      "stateMutability": "view",
      "type": "function"
    },
    {
      "inputs": [],
      "name": "userNFT",
      "outputs": [
        {
          "internalType": "contract IUserNFT",
          "name": "",
          "type": "address"
        }
      ],
      "stateMutability": "view",
      "type": "function"
    },
    {
      "inputs": [
        {
          "internalType": "address",
          "name": "",
          "type": "address"
        }
      ],
      "name": "userToCommunity",
      "outputs": [
        {
          "internalType": "uint256",
          "name": "id",
          "type": "uint256"
        },
        {
          "internalType": "string",
          "name": "name",
          "type": "string"
        },
        {
          "internalType": "string",
          "name": "communityDescription",
          "type": "string"
        }
      ],
      "stateMutability": "view",
      "type": "function"
    },
    {
      "inputs": [
        {
          "internalType": "address",
          "name": "",
          "type": "address"
        }
      ],
      "name": "userToIndex",
      "outputs": [
        {
          "internalType": "uint256",
          "name": "",
          "type": "uint256"
        }
      ],
      "stateMutability": "view",
      "type": "function"
    }
  ],
  "bytecode": "0x6101006040526000805463ffffffff60a01b1916631b2ceb3360a11b17905562278d00600a553480156200003257600080fd5b5060405162005e5238038062005e52833981016040819052620000559162000113565b6200006033620000a1565b6001600160a01b0384811660e05283811660805282811660a052811660c052620000976003620000f1602090811b6200441e17901c565b505050506200017b565b600080546001600160a01b038381166001600160a01b0319831681178455604051919092169283917f8be0079c531659141344cd1fd0a4f28419497f9722a3daafe3b4186f6b6457e09190a35050565b80546001019055565b6001600160a01b03811681146200011057600080fd5b50565b600080600080608085870312156200012a57600080fd5b84516200013781620000fa565b60208601519094506200014a81620000fa565b60408601519093506200015d81620000fa565b60608601519092506200017081620000fa565b939692955090935050565b60805160a05160c05160e051615c6c620001e66000396000818161052e0152818161116b01526114f401526000818161043701528181610a8d01528181610c3e0152610d0801526000818161046b0152610b890152600081816105f20152610b5a0152615c6c6000f3fe6080604052600436106102ff5760003560e01c8063935ca0f311610190578063d49f077e116100dc578063ef097fc411610095578063f621f9aa1161006f578063f621f9aa146109ea578063f695c67a14610a0a578063f8e7c39f14610a2a578063feec5e6014610a4a57600080fd5b8063ef097fc41461098a578063f11c85a8146109aa578063f2fde38b146109ca57600080fd5b8063d49f077e146108cd578063d7465f20146108ed578063dd4320c814610908578063dd96a18614610928578063e52f011c14610948578063ec04cfa91461096a57600080fd5b8063b44d310b11610149578063c1982dae11610123578063c1982dae14610821578063ca5da7af14610850578063cac011691461087d578063d0e4b8f61461089d57600080fd5b8063b44d310b146107bd578063b4d2fd1e146107df578063b742be18146107ff57600080fd5b8063935ca0f3146106f05780639d5d99e6146107105780639f191e0814610732578063a2bdedf414610752578063a862c3e314610782578063b122a0ef1461079d57600080fd5b806361d027b31161024f5780637d253aff116102085780638d5091ad116101e25780638d5091ad146106635780638da5cb5b146106835780638e499d2b146106a15780638fc64e5d146106c157600080fd5b80637d253aff146105e05780637f6c7f10146106145780638ce1118d1461063457600080fd5b806361d027b31461051c5780636e04ff0d1461055057806370309b4c1461057e578063715018a6146105935780637a94a633146105a85780637c0f6b35146105be57600080fd5b80631ff74bc0116102bc578063447cc93611610296578063447cc9361461048d5780634585e33b146104bc5780635b2656eb146104dc57806361647b5b146104fc57600080fd5b80631ff74bc0146104125780632a663606146104255780632b20e3971461045957600080fd5b806308505d571461030457806312f8a6ab1461034a578063167d05ff1461038257806318a9fb8a146103bd5780631c4e1dc7146103df5780631d2e4afd146103ff575b600080fd5b34801561031057600080fd5b5061033461031f366004614911565b60126020526000908152604090205460ff1681565b604051610341919061495f565b60405180910390f35b34801561035657600080fd5b5061036a610365366004614973565b610a5f565b6040516001600160a01b039091168152602001610341565b34801561038e57600080fd5b506103af61039d366004614911565b60066020526000908152604090205481565b604051908152602001610341565b3480156103c957600080fd5b506103dd6103d8366004614b22565b610a89565b005b3480156103eb57600080fd5b5061036a6103fa366004614973565b610daf565b6103dd61040d366004614c0c565b610dbf565b6103dd610420366004614c6f565b6111f6565b34801561043157600080fd5b5061036a7f000000000000000000000000000000000000000000000000000000000000000081565b34801561046557600080fd5b5061036a7f000000000000000000000000000000000000000000000000000000000000000081565b34801561049957600080fd5b506104ad6104a8366004614973565b611580565b60405161034193929190614d00565b3480156104c857600080fd5b506103dd6104d7366004614c6f565b6116d3565b3480156104e857600080fd5b506103dd6104f7366004614d3e565b61174e565b34801561050857600080fd5b5060055461036a906001600160a01b031681565b34801561052857600080fd5b5061036a7f000000000000000000000000000000000000000000000000000000000000000081565b34801561055c57600080fd5b5061057061056b366004614c6f565b6118db565b604051610341929190614dc5565b34801561058a57600080fd5b506103dd611afe565b34801561059f57600080fd5b506103dd611c48565b3480156105b457600080fd5b506103af600a5481565b3480156105ca57600080fd5b506105d3611c5c565b6040516103419190614df8565b3480156105ec57600080fd5b5061036a7f000000000000000000000000000000000000000000000000000000000000000081565b34801561062057600080fd5b506103dd61062f366004614e98565b611da0565b34801561064057600080fd5b5061065461064f366004614973565b611dd6565b60405161034193929190614ed1565b34801561066f57600080fd5b5061036a61067e366004614973565b611ea8565b34801561068f57600080fd5b506000546001600160a01b031661036a565b3480156106ad57600080fd5b506103dd6106bc366004614f25565b611eb8565b3480156106cd57600080fd5b506106e16106dc366004614911565b6120b9565b60405161034193929190615037565b3480156106fc57600080fd5b506106e161070b366004614973565b61221b565b34801561071c57600080fd5b5061072561224e565b6040516103419190615075565b34801561073e57600080fd5b506103dd61074d366004614c0c565b612434565b34801561075e57600080fd5b5061077261076d366004614973565b6124fe565b6040516103419493929190615152565b34801561078e57600080fd5b506103af662386f26fc1000081565b3480156107a957600080fd5b506103dd6107b8366004614973565b6125d0565b3480156107c957600080fd5b506107d26127e2565b6040516103419190615240565b3480156107eb57600080fd5b506103dd6107fa366004614911565b612a05565b34801561080b57600080fd5b50610814612ac2565b60405161034191906152d5565b34801561082d57600080fd5b5061084161083c366004614973565b612c52565b604051610341939291906152e8565b34801561085c57600080fd5b506103af61086b366004614911565b60076020526000908152604090205481565b34801561088957600080fd5b506103dd610898366004615313565b612d98565b3480156108a957600080fd5b506108bd6108b8366004614973565b61301c565b6040516103419493929190615347565b3480156108d957600080fd5b506103dd6108e836600461539a565b613203565b3480156108f957600080fd5b506103af6611c37937e0800081565b34801561091457600080fd5b506103dd610923366004615313565b6135df565b34801561093457600080fd5b506104ad610943366004614973565b613663565b34801561095457600080fd5b5061095d613673565b60405161034191906153df565b34801561097657600080fd5b50610654610985366004614911565b613d83565b34801561099657600080fd5b506103dd6109a5366004614911565b613d9e565b3480156109b657600080fd5b506103dd6109c5366004614c0c565b61414c565b3480156109d657600080fd5b506103dd6109e5366004614911565b6141d1565b3480156109f657600080fd5b5060045461036a906001600160a01b031681565b348015610a1657600080fd5b50610841610a25366004614911565b61424a565b348015610a3657600080fd5b50610841610a45366004614973565b61426c565b348015610a5657600080fd5b5061081461428e565b600b8181548110610a6f57600080fd5b6000918252602090912001546001600160a01b0316905081565b60007f00000000000000000000000000000000000000000000000000000000000000006001600160a01b0316631865c57d6040518163ffffffff1660e01b8152600401600060405180830381865afa158015610ae9573d6000803e3d6000fd5b505050506040513d6000823e601f3d908101601f19168201604052610b119190810190615573565b5050805160405191925063ffffffff1690600090610b47908e908e908e908e908e908e908e908e908e908e90309060200161570b565b60405160208183030381529060405290507f00000000000000000000000000000000000000000000000000000000000000006001600160a01b0316634000aea07f000000000000000000000000000000000000000000000000000000000000000087600060149054906101000a900460e01b85604051602001610bcb9291906157a1565b6040516020818303038152906040526040518463ffffffff1660e01b8152600401610bf8939291906157d2565b6020604051808303816000875af1158015610c17573d6000803e3d6000fd5b505050506040513d601f19601f82011682018060405250810190610c3b919061580e565b507f00000000000000000000000000000000000000000000000000000000000000006001600160a01b0316631865c57d6040518163ffffffff1660e01b8152600401600060405180830381865afa158015610c9a573d6000803e3d6000fd5b505050506040513d6000823e601f3d908101601f19168201604052610cc29190810190615573565b5050805190935063ffffffff16610cda836001615846565b8103610d5a576000610ced600143615859565b60408051914060208301526bffffffffffffffffffffffff197f000000000000000000000000000000000000000000000000000000000000000060601b16908201526001600160e01b031960e086901b16605482015260580160408051601f198184030190525250610d9f565b60405162461bcd60e51b8152602060048201526015602482015274185d5d1bcb585c1c1c9bdd9948191a5cd8589b1959605a1b60448201526064015b60405180910390fd5b5050505050505050505050505050565b600d8181548110610a6f57600080fd5b336000908152600e602052604090205460ff1615610df05760405163a929afd160e01b815260040160405180910390fd5b662386f26fc10000341015610e185760405163cd1c886760e01b815260040160405180910390fd5b6000610e2360025490565b336000908152600e60209081526040808320805460ff191660019081179091556010835281842082516080810190935280546001600160a01b031683529081018054959650939491939092840191610e7a9061586c565b80601f0160208091040260200160405190810160405280929190818152602001828054610ea69061586c565b8015610ef35780601f10610ec857610100808354040283529160200191610ef3565b820191906000526020600020905b815481529060010190602001808311610ed657829003601f168201915b505050918352505060028281015460209092019160ff1690811115610f1a57610f1a614935565b6002811115610f2b57610f2b614935565b815260039190910154602091820152338252810185905260016040820152600a54909150610f599042615846565b6060820152336000908152601060209081526040909120825181546001600160a01b0319166001600160a01b03909116178155908201518291906001820190610fa290826158f1565b5060408201518160020160006101000a81548160ff02191690836002811115610fcd57610fcd614935565b021790555060609190910151600390910155336000908152600760209081526040822084905560188054600181018255925282517fb13d2d76d1f4b7be834882e410b3e3a8afaf69f83600ae24db354391d2378d2e600490930292830180546001600160a01b0319166001600160a01b039092169190911781559083015183927fb13d2d76d1f4b7be834882e410b3e3a8afaf69f83600ae24db354391d2378d2f019061107a90826158f1565b5060408201518160020160006101000a81548160ff021916908360028111156110a5576110a5614935565b021790555060609190910151600390910155600b80546001810182556000919091527f0175b7a638427703f0dbe7bb9bbf987a2551717b34e79f33b5b1008d1fa01db90180546001600160a01b0319163390811790915560055460405163d0def52160e01b81526001600160a01b03919091169163d0def5219161112e919087906004016159b0565b600060405180830381600087803b15801561114857600080fd5b505af115801561115c573d6000803e3d6000fd5b50506040516001600160a01b037f00000000000000000000000000000000000000000000000000000000000000001692503480156108fc029250906000818181858888f193505050501580156111b6573d6000803e3d6000fd5b507f8772c8819e99ebb9f69fe72d9a60c78de13a367140e9360b1a4f2fbe59d7204b33856040516111e89291906159b0565b60405180910390a150505050565b336000908152600f602052604090205460ff16156112275760405163773aeddd60e11b815260040160405180910390fd5b600061123260015490565b3360009081526012602052604090205490915060ff16600181600481111561125c5761125c614935565b14806112795750600281600481111561127757611277614935565b145b156112d25760405163157a0b0f60e31b815260206004820152602260248201527f436f6d6d756e6974793a20616c7265616479206170706c6965642f70656e64696044820152616e6760f01b6064820152608401610d96565b6611c37937e080003410156112fa5760405163cd1c886760e01b815260040160405180910390fd5b506040805160806020601f8601819004028201810190925260608101848152600192600092918291889088908190850183828082843760009201919091525050509082525033602082015260400183600481111561135a5761135a614935565b9052336000908152600660209081526040808320879055601290915290208054919250839160ff1916600183600481111561139757611397614935565b0217905550336000908152601360205260409020815182919081906113bc90826158f1565b5060208201516001820180546001600160a01b039092166001600160a01b03198316811782556040850151926001600160a81b03191617600160a01b83600481111561140a5761140a614935565b021790555050600d805460018181019092557fd7b6990105719101dabeb77144f2a3385c8033acd3af97e9423a695e81ad1eb50180546001600160a01b03191633179055601580549182018155600052825183925060029091027f55f448fdea98c4d29eb340757ef0a66cd03dbb9538908a6a81d96026b71ec4750190819061149390826158f1565b5060208201516001820180546001600160a01b039092166001600160a01b03198316811782556040850151926001600160a81b03191617600160a01b8360048111156114e1576114e1614935565b0217905550506040516001600160a01b037f00000000000000000000000000000000000000000000000000000000000000001691503480156108fc02916000818181858888f1935050505015801561153d573d6000803e3d6000fd5b507f61d9c1c60d18166430e232b0032dc6dca6b6f8ecb9fae9972cd57989dd88020f338686604051611571939291906159d4565b60405180910390a15050505050565b6016818154811061159057600080fd5b90600052602060002090600302016000915090508060000180546115b39061586c565b80601f01602080910402602001604051908101604052809291908181526020018280546115df9061586c565b801561162c5780601f106116015761010080835404028352916020019161162c565b820191906000526020600020905b81548152906001019060200180831161160f57829003601f168201915b5050505050908060010180546116419061586c565b80601f016020809104026020016040519081016040528092919081815260200182805461166d9061586c565b80156116ba5780601f1061168f576101008083540402835291602001916116ba565b820191906000526020600020905b81548152906001019060200180831161169d57829003601f168201915b505050600290930154919250506001600160a01b031683565b60006116e1828401846159f9565b905060005b81518161ffff161015611748576000828261ffff168151811061170b5761170b615b14565b6020026020010151905060008160000151905081606001514211156117335761173381613d9e565b5050808061174090615b2a565b9150506116e6565b50505050565b611756614427565b336000908152600f602052604090205460ff166117885760405163349b3f2f60e21b8152336004820152602401610d96565b3360008181526011602090815260408083208151608081018352888152808401959095529084018690526060840185905260068101805460018101825590845291909220835192939283926004029091019081906117e690826158f1565b5060208201516001820180546001600160a01b0319166001600160a01b039092169190911790556040820151600282019061182190826158f1565b506060820151600382019061183690826158f1565b5050601a8054600181018255600091909152825183925060049091027f057c384a7d1c54f3a1b2e5e67b2617b8224fdfd1ea7234eea573a6ff665ff63e0190819061188190826158f1565b5060208201516001820180546001600160a01b0319166001600160a01b03909216919091179055604082015160028201906118bc90826158f1565b50606082015160038201906118d190826158f1565b5050505050505050565b600060606000806018805490506001600160401b038111156118ff576118ff61498c565b60405190808252806020026020018201604052801561195b57816020015b6119486040805160808101825260008082526060602083015290918201908152602001600081525090565b81526020019060019003908161191d5790505b50905060005b60185461ffff82161015611acf57600060188261ffff168154811061198857611988615b14565b6000918252602091829020604080516080810190915260049092020180546001600160a01b0316825260018101805492939192918401916119c89061586c565b80601f01602080910402602001604051908101604052809291908181526020018280546119f49061586c565b8015611a415780601f10611a1657610100808354040283529160200191611a41565b820191906000526020600020905b815481529060010190602001808311611a2457829003601f168201915b505050918352505060028281015460209092019160ff1690811115611a6857611a68614935565b6002811115611a7957611a79614935565b815260200160038201548152505090508060600151421115611abc5780838361ffff1681518110611aac57611aac615b14565b6020026020010181905250600193505b5080611ac781615b2a565b915050611961565b5081935080604051602001611ae49190614df8565b604051602081830303815290604052925050509250929050565b336000908152600f602052604090205460ff16611b305760405163349b3f2f60e21b8152336004820152602401610d96565b3360008181526012602052604090205460ff166001816004811115611b5757611b57614935565b14611b755760405163b824136960e01b815260040160405180910390fd5b336000908152600f602052604090205460ff1615611ba65760405163773aeddd60e11b815260040160405180910390fd5b3360008181526012602052604081205460ff1691611bc390614481565b9050600d8181548110611bd857611bd8615b14565b6000918252602080832090910180546001600160a01b0319169055338252601390526040812090611c09828261459f565b50600190810180546001600160a81b0319169055336000908152601260205260409020805460049450849260ff1990911690835b021790555050505050565b611c50614427565b611c5a60006144ef565b565b60606018805480602002602001604051908101604052809291908181526020016000905b82821015611d9757600084815260209081902060408051608081019091526004850290910180546001600160a01b031682526001810180549293919291840191611cc99061586c565b80601f0160208091040260200160405190810160405280929190818152602001828054611cf59061586c565b8015611d425780601f10611d1757610100808354040283529160200191611d42565b820191906000526020600020905b815481529060010190602001808311611d2557829003601f168201915b505050918352505060028281015460209092019160ff1690811115611d6957611d69614935565b6002811115611d7a57611d7a614935565b815260200160038201548152505081526020019060010190611c80565b50505050905090565b611da8614427565b600580546001600160a01b039384166001600160a01b03199182161790915560048054929093169116179055565b60158181548110611de657600080fd5b9060005260206000209060020201600091509050806000018054611e099061586c565b80601f0160208091040260200160405190810160405280929190818152602001828054611e359061586c565b8015611e825780601f10611e5757610100808354040283529160200191611e82565b820191906000526020600020905b815481529060010190602001808311611e6557829003601f168201915b505050600190930154919250506001600160a01b0381169060ff600160a01b9091041683565b600c8181548110610a6f57600080fd5b6000611ec360035490565b6040805160808101825282815260208082018881528284018890526060830187905260008581526009909252929020815181559151929350918291906001820190611f0e90826158f1565b5060408201516002820190611f2390826158f1565b5060608201518051611f3f9160038401916020909101906145d9565b505060148054600181018255600091909152825160049091027fce6d7b5282bd9a3661ae061feed1dbda4e52ab073b1f9285be6e155d9c38d4ec810191825560208401518493507fce6d7b5282bd9a3661ae061feed1dbda4e52ab073b1f9285be6e155d9c38d4ed90910190611fb590826158f1565b5060408201516002820190611fca90826158f1565b5060608201518051611fe69160038401916020909101906145d9565b50505060005b83518161ffff1610156120a3578160086000868461ffff168151811061201457612014615b14565b60200260200101516001600160a01b03166001600160a01b0316815260200190815260200160002060008201518160000155602082015181600101908161205b91906158f1565b506040820151600282019061207090826158f1565b506060820151805161208c9160038401916020909101906145d9565b50905050808061209b90615b2a565b915050611fec565b506120b2600380546001019055565b5050505050565b6011602052600090815260409020805481906120d49061586c565b80601f01602080910402602001604051908101604052809291908181526020018280546121009061586c565b801561214d5780601f106121225761010080835404028352916020019161214d565b820191906000526020600020905b81548152906001019060200180831161213057829003601f168201915b5050506002840154604080518082019091526004860180546001600160a01b039081168352600588018054979891909416969095509193509160208401916121949061586c565b80601f01602080910402602001604051908101604052809291908181526020018280546121c09061586c565b801561220d5780601f106121e25761010080835404028352916020019161220d565b820191906000526020600020905b8154815290600101906020018083116121f057829003601f168201915b505050505081525050905083565b6019818154811061222b57600080fd5b90600052602060002090600702016000915090508060000180546120d49061586c565b60606014805480602002602001604051908101604052809291908181526020016000905b82821015611d975783829060005260206000209060040201604051806080016040529081600082015481526020016001820180546122af9061586c565b80601f01602080910402602001604051908101604052809291908181526020018280546122db9061586c565b80156123285780601f106122fd57610100808354040283529160200191612328565b820191906000526020600020905b81548152906001019060200180831161230b57829003601f168201915b505050505081526020016002820180546123419061586c565b80601f016020809104026020016040519081016040528092919081815260200182805461236d9061586c565b80156123ba5780601f1061238f576101008083540402835291602001916123ba565b820191906000526020600020905b81548152906001019060200180831161239d57829003601f168201915b505050505081526020016003820180548060200260200160405190810160405280929190818152602001828054801561241c57602002820191906000526020600020905b81546001600160a01b031681526001909101906020018083116123fe575b50505050508152505081526020019060010190612272565b336000908152600f602052604090205460ff166124665760405163349b3f2f60e21b8152336004820152602401610d96565b336000818152601160209081526040808320815160608101835287815280840187905291820194909452600380850180546001810182559085529290932081519193849302019081906124b990826158f1565b50602082015160018201906124ce90826158f1565b5060409190910151600290910180546001600160a01b0319166001600160a01b0390921691909117905550505050565b6018818154811061250e57600080fd5b6000918252602090912060049091020180546001820180546001600160a01b0390921693509061253d9061586c565b80601f01602080910402602001604051908101604052809291908181526020018280546125699061586c565b80156125b65780601f1061258b576101008083540402835291602001916125b6565b820191906000526020600020905b81548152906001019060200180831161259957829003601f168201915b505050506002830154600390930154919260ff1691905084565b6000600960008381526020019081526020016000206040518060800160405290816000820154815260200160018201805461260a9061586c565b80601f01602080910402602001604051908101604052809291908181526020018280546126369061586c565b80156126835780601f1061265857610100808354040283529160200191612683565b820191906000526020600020905b81548152906001019060200180831161266657829003601f168201915b5050505050815260200160028201805461269c9061586c565b80601f01602080910402602001604051908101604052809291908181526020018280546126c89061586c565b80156127155780601f106126ea57610100808354040283529160200191612715565b820191906000526020600020905b8154815290600101906020018083116126f857829003601f168201915b505050505081526020016003820180548060200260200160405190810160405280929190818152602001828054801561277757602002820191906000526020600020905b81546001600160a01b03168152600190910190602001808311612759575b5050509190925250503360009081526008602090815260409091208351815590830151929350839290915060018201906127b190826158f1565b50604082015160028201906127c690826158f1565b50606082015180516120b29160038401916020909101906145d9565b6060601a805480602002602001604051908101604052809291908181526020016000905b82821015611d9757838290600052602060002090600402016040518060800160405290816000820180546128399061586c565b80601f01602080910402602001604051908101604052809291908181526020018280546128659061586c565b80156128b25780601f10612887576101008083540402835291602001916128b2565b820191906000526020600020905b81548152906001019060200180831161289557829003601f168201915b505050918352505060018201546001600160a01b031660208201526002820180546040909201916128e29061586c565b80601f016020809104026020016040519081016040528092919081815260200182805461290e9061586c565b801561295b5780601f106129305761010080835404028352916020019161295b565b820191906000526020600020905b81548152906001019060200180831161293e57829003601f168201915b505050505081526020016003820180546129749061586c565b80601f01602080910402602001604051908101604052809291908181526020018280546129a09061586c565b80156129ed5780601f106129c2576101008083540402835291602001916129ed565b820191906000526020600020905b8154815290600101906020018083116129d057829003601f168201915b50505050508152505081526020019060010190612806565b612a0d614427565b6001600160a01b038116600090815260126020526040902054819060ff166001816004811115612a3f57612a3f614935565b14612a5d5760405163b824136960e01b815260040160405180910390fd5b6001600160a01b0383166000908152600f602052604090205460ff1615612a975760405163773aeddd60e11b815260040160405180910390fd5b6001600160a01b03831660009081526012602052604090208054600391829160ff1916600183611c3d565b60606017805480602002602001604051908101604052809291908181526020016000905b82821015611d975783829060005260206000209060030201604051806060016040529081600082018054612b199061586c565b80601f0160208091040260200160405190810160405280929190818152602001828054612b459061586c565b8015612b925780601f10612b6757610100808354040283529160200191612b92565b820191906000526020600020905b815481529060010190602001808311612b7557829003601f168201915b50505050508152602001600182018054612bab9061586c565b80601f0160208091040260200160405190810160405280929190818152602001828054612bd79061586c565b8015612c245780601f10612bf957610100808354040283529160200191612c24565b820191906000526020600020905b815481529060010190602001808311612c0757829003601f168201915b5050509183525050600291909101546001600160a01b03166020918201529082526001929092019101612ae6565b60148181548110612c6257600080fd5b60009182526020909120600490910201805460018201805491935090612c879061586c565b80601f0160208091040260200160405190810160405280929190818152602001828054612cb39061586c565b8015612d005780601f10612cd557610100808354040283529160200191612d00565b820191906000526020600020905b815481529060010190602001808311612ce357829003601f168201915b505050505090806002018054612d159061586c565b80601f0160208091040260200160405190810160405280929190818152602001828054612d419061586c565b8015612d8e5780601f10612d6357610100808354040283529160200191612d8e565b820191906000526020600020905b815481529060010190602001808311612d7157829003601f168201915b5050505050905083565b336000908152600e602052604090205460ff1615612dcb5760405163bfadfc2760e01b8152336004820152602401610d96565b3360008181526010602052604090206003015442811115612dff57604051631da7447960e21b815260040160405180910390fd5b33600090815260106020908152604080832081516080810190925280546001600160a01b031682526001810180549293919291840191612e3e9061586c565b80601f0160208091040260200160405190810160405280929190818152602001828054612e6a9061586c565b8015612eb75780601f10612e8c57610100808354040283529160200191612eb7565b820191906000526020600020905b815481529060010190602001808311612e9a57829003601f168201915b505050918352505060028281015460209092019160ff1690811115612ede57612ede614935565b6002811115612eef57612eef614935565b8152600391909101546020909101529050600281604001516002811115612f1857612f18614935565b14612f3657604051631294a20560e01b815260040160405180910390fd5b6001604082810182905233600090815260106020908152919020835181546001600160a01b0319166001600160a01b03909116178155908301518392820190612f7f90826158f1565b5060408201518160020160006101000a81548160ff02191690836002811115612faa57612faa614935565b02179055506060919091015160039091015560055460405163d0def52160e01b81526001600160a01b039091169063d0def52190612fee90339088906004016159b0565b600060405180830381600087803b15801561300857600080fd5b505af11580156118d1573d6000803e3d6000fd5b601a818154811061302c57600080fd5b906000526020600020906004020160009150905080600001805461304f9061586c565b80601f016020809104026020016040519081016040528092919081815260200182805461307b9061586c565b80156130c85780601f1061309d576101008083540402835291602001916130c8565b820191906000526020600020905b8154815290600101906020018083116130ab57829003601f168201915b505050600184015460028501805494956001600160a01b039092169491935091506130f29061586c565b80601f016020809104026020016040519081016040528092919081815260200182805461311e9061586c565b801561316b5780601f106131405761010080835404028352916020019161316b565b820191906000526020600020905b81548152906001019060200180831161314e57829003601f168201915b5050505050908060030180546131809061586c565b80601f01602080910402602001604051908101604052809291908181526020018280546131ac9061586c565b80156131f95780601f106131ce576101008083540402835291602001916131f9565b820191906000526020600020905b8154815290600101906020018083116131dc57829003601f168201915b5050505050905084565b61320b614427565b6001600160a01b038216600090815260126020526040902054829060ff16600181600481111561323d5761323d614935565b1461325b5760405163b824136960e01b815260040160405180910390fd5b6001600160a01b0384166000908152600f602052604090205460ff16156132955760405163773aeddd60e11b815260040160405180910390fd5b6001600160a01b03841660009081526012602090815260408083208054600260ff199182168117909255600f84528285208054909116600117905560139092528083208151606081019092528054929392829082906132f39061586c565b80601f016020809104026020016040519081016040528092919081815260200182805461331f9061586c565b801561336c5780601f106133415761010080835404028352916020019161336c565b820191906000526020600020905b81548152906001019060200180831161334f57829003601f168201915b505050918352505060018201546001600160a01b0381166020830152604090910190600160a01b900460ff1660048111156133a9576133a9614935565b60048111156133ba576133ba614935565b9052506001600160a01b038781166000908152601160209081526040909120908301516002820180546001600160a01b0319169190931617909155815191925090819061340790826158f1565b506019805460018101825560009190915281906007027f944998273e477b495144fb8794c914197f3ccb46be2900f4698fd0ef743c9695018061344a8382615b4b565b506001828101805461345f928401919061463e565b5060028281015490820180546001600160a01b0319166001600160a01b039092169190911790556003808301805461349a92840191906146d3565b506004828101805491830180546001600160a01b0319166001600160a01b03909316929092178255906005808401906134d590860182615b4b565b505050600682810180546134ec9284019190614768565b5050600c80546001810182556000919091527fdf6966c971051c3d54ec59162606531493a51404a002842f56009d7e5cf4a8c70180546001600160a01b0319166001600160a01b038a8116919091179091556004805460405163d0def52160e01b81529216925063d0def521916135679133918b91016159b0565b600060405180830381600087803b15801561358157600080fd5b505af1158015613595573d6000803e3d6000fd5b50506040516001600160a01b038a1681527f6ca6150407f26e90367ff690c8b617cad626020aa12080384e3b31479c0442fb9250602001905060405180910390a150505050505050565b336000908152600f602052604090205460ff166136115760405163349b3f2f60e21b8152336004820152602401610d96565b3360008181526011602090815260409182902082518084019093528383529082018490526004810180546001600160a01b03191690931783559181906005840161365b86826158f1565b505050505050565b6017818154811061159057600080fd5b60606019805480602002602001604051908101604052809291908181526020016000905b82821015611d9757838290600052602060002090600702016040518060c00160405290816000820180546136ca9061586c565b80601f01602080910402602001604051908101604052809291908181526020018280546136f69061586c565b80156137435780601f1061371857610100808354040283529160200191613743565b820191906000526020600020905b81548152906001019060200180831161372657829003601f168201915b5050505050815260200160018201805480602002602001604051908101604052809291908181526020016000905b828210156138dd57838290600052602060002090600302016040518060600160405290816000820180546137a49061586c565b80601f01602080910402602001604051908101604052809291908181526020018280546137d09061586c565b801561381d5780601f106137f25761010080835404028352916020019161381d565b820191906000526020600020905b81548152906001019060200180831161380057829003601f168201915b505050505081526020016001820180546138369061586c565b80601f01602080910402602001604051908101604052809291908181526020018280546138629061586c565b80156138af5780601f10613884576101008083540402835291602001916138af565b820191906000526020600020905b81548152906001019060200180831161389257829003601f168201915b5050509183525050600291909101546001600160a01b03166020918201529082526001929092019101613771565b5050509082525060028201546001600160a01b0316602080830191909152600383018054604080518285028101850182528281529401939260009084015b82821015613a87578382906000526020600020906003020160405180606001604052908160008201805461394e9061586c565b80601f016020809104026020016040519081016040528092919081815260200182805461397a9061586c565b80156139c75780601f1061399c576101008083540402835291602001916139c7565b820191906000526020600020905b8154815290600101906020018083116139aa57829003601f168201915b505050505081526020016001820180546139e09061586c565b80601f0160208091040260200160405190810160405280929190818152602001828054613a0c9061586c565b8015613a595780601f10613a2e57610100808354040283529160200191613a59565b820191906000526020600020905b815481529060010190602001808311613a3c57829003601f168201915b5050509183525050600291909101546001600160a01b0316602091820152908252600192909201910161391b565b50505090825250604080518082019091526004830180546001600160a01b0316825260058401805460209485019484019190613ac29061586c565b80601f0160208091040260200160405190810160405280929190818152602001828054613aee9061586c565b8015613b3b5780601f10613b1057610100808354040283529160200191613b3b565b820191906000526020600020905b815481529060010190602001808311613b1e57829003601f168201915b505050505081525050815260200160068201805480602002602001604051908101604052809291908181526020016000905b82821015613d6c5783829060005260206000209060040201604051806080016040529081600082018054613ba09061586c565b80601f0160208091040260200160405190810160405280929190818152602001828054613bcc9061586c565b8015613c195780601f10613bee57610100808354040283529160200191613c19565b820191906000526020600020905b815481529060010190602001808311613bfc57829003601f168201915b505050918352505060018201546001600160a01b03166020820152600282018054604090920191613c499061586c565b80601f0160208091040260200160405190810160405280929190818152602001828054613c759061586c565b8015613cc25780601f10613c9757610100808354040283529160200191613cc2565b820191906000526020600020905b815481529060010190602001808311613ca557829003601f168201915b50505050508152602001600382018054613cdb9061586c565b80601f0160208091040260200160405190810160405280929190818152602001828054613d079061586c565b8015613d545780601f10613d2957610100808354040283529160200191613d54565b820191906000526020600020905b815481529060010190602001808311613d3757829003601f168201915b50505050508152505081526020019060010190613b6d565b505050508152505081526020019060010190613697565b601360205260009081526040902080548190611e099061586c565b6001600160a01b038116600090815260106020526040902060030154819042811115613ddd57604051631da7447960e21b815260040160405180910390fd5b6001600160a01b0383166000908152600e602052604090205460ff16613e215760405163bfadfc2760e01b81526001600160a01b0384166004820152602401610d96565b6001600160a01b03808416600090815260106020908152604080832081516080810190925280549094168152600184018054939491939192840191613e659061586c565b80601f0160208091040260200160405190810160405280929190818152602001828054613e919061586c565b8015613ede5780601f10613eb357610100808354040283529160200191613ede565b820191906000526020600020905b815481529060010190602001808311613ec157829003601f168201915b505050918352505060028281015460209092019160ff1690811115613f0557613f05614935565b6002811115613f1657613f16614935565b815260200160038201548152505090508060600151421115613f415760026040820152600060608201525b6001600160a01b038481166000908152601060209081526040909120835181546001600160a01b03191693169290921782558201518291906001820190613f8890826158f1565b5060408201518160020160006101000a81548160ff02191690836002811115613fb357613fb3614935565b0217905550606082015181600301559050506000613fd08561453f565b90508160188281548110613fe657613fe6615b14565b600091825260209182902083516004929092020180546001600160a01b0319166001600160a01b0390921691909117815590820151600182019061402a90826158f1565b5060408201518160020160006101000a81548160ff0219169083600281111561405557614055614935565b0217905550606091909101516003909101556005548251604051639c85cd6b60e01b81526001600160a01b0391821660048201526000929190911690639c85cd6b90602401602060405180830381865afa1580156140b7573d6000803e3d6000fd5b505050506040513d601f19601f820116820180604052508101906140db9190615c1d565b6005548451604051632770a7eb60e21b81526001600160a01b039182166004820152602481018490529293501690639dc29fac90604401600060405180830381600087803b15801561412c57600080fd5b505af1158015614140573d6000803e3d6000fd5b50505050505050505050565b336000908152600f602052604090205460ff1661417e5760405163349b3f2f60e21b8152336004820152602401610d96565b336000818152601160209081526040808320815160608101835287815280840187905291820194909452600180850180549182018155845291909220825183926003029091019081906124b990826158f1565b6141d9614427565b6001600160a01b03811661423e5760405162461bcd60e51b815260206004820152602660248201527f4f776e61626c653a206e6577206f776e657220697320746865207a65726f206160448201526564647265737360d01b6064820152608401610d96565b614247816144ef565b50565b60086020526000908152604090208054600182018054919291612c879061586c565b60096020526000908152604090208054600182018054919291612c879061586c565b60606016805480602002602001604051908101604052809291908181526020016000905b82821015611d9757838290600052602060002090600302016040518060600160405290816000820180546142e59061586c565b80601f01602080910402602001604051908101604052809291908181526020018280546143119061586c565b801561435e5780601f106143335761010080835404028352916020019161435e565b820191906000526020600020905b81548152906001019060200180831161434157829003601f168201915b505050505081526020016001820180546143779061586c565b80601f01602080910402602001604051908101604052809291908181526020018280546143a39061586c565b80156143f05780601f106143c5576101008083540402835291602001916143f0565b820191906000526020600020905b8154815290600101906020018083116143d357829003601f168201915b5050509183525050600291909101546001600160a01b031660209182015290825260019290920191016142b2565b80546001019055565b6000546001600160a01b03163314611c5a5760405162461bcd60e51b815260206004820181905260248201527f4f776e61626c653a2063616c6c6572206973206e6f7420746865206f776e65726044820152606401610d96565b6001600160a01b038116600090815260126020526040812054829060ff1660018160048111156144b3576144b3614935565b146144d15760405163b824136960e01b815260040160405180910390fd5b5050506001600160a01b031660009081526006602052604090205490565b600080546001600160a01b038381166001600160a01b0319831681178455604051919092169283917f8be0079c531659141344cd1fd0a4f28419497f9722a3daafe3b4186f6b6457e09190a35050565b6001600160a01b0381166000908152600e602052604081205460ff166145835760405163bfadfc2760e01b81526001600160a01b0383166004820152602401610d96565b506001600160a01b031660009081526007602052604090205490565b5080546145ab9061586c565b6000825580601f106145bb575050565b601f0160209004906000526020600020908101906142479190614812565b82805482825590600052602060002090810192821561462e579160200282015b8281111561462e57825182546001600160a01b0319166001600160a01b039091161782556020909201916001909101906145f9565b5061463a929150614812565b5090565b8280548282559060005260206000209060030281019282156146c75760005260206000209160030282015b828111156146c75782828061467e8382615b4b565b5060018181019061469190840182615b4b565b50600291820154910180546001600160a01b0319166001600160a01b039092169190911790556003928301929190910190614669565b5061463a929150614827565b82805482825590600052602060002090600302810192821561475c5760005260206000209160030282015b8281111561475c578282806147138382615b4b565b5060018181019061472690840182615b4b565b50600291820154910180546001600160a01b0319166001600160a01b0390921691909117905560039283019291909101906146fe565b5061463a929150614864565b8280548282559060005260206000209060040281019282156148065760005260206000209160040282015b82811115614806578282806147a88382615b4b565b5060018281015490820180546001600160a01b0319166001600160a01b039092169190911790556002808201906147e190840182615b4b565b506003818101906147f490840182615b4b565b50505091600401919060040190614793565b5061463a9291506148a1565b5b8082111561463a5760008155600101614813565b8082111561463a57600061483b828261459f565b61484960018301600061459f565b506002810180546001600160a01b0319169055600301614827565b8082111561463a576000614878828261459f565b61488660018301600061459f565b506002810180546001600160a01b0319169055600301614864565b8082111561463a5760006148b5828261459f565b6001820180546001600160a01b03191690556148d560028301600061459f565b6148e360038301600061459f565b506004016148a1565b6001600160a01b038116811461424757600080fd5b803561490c816148ec565b919050565b60006020828403121561492357600080fd5b813561492e816148ec565b9392505050565b634e487b7160e01b600052602160045260246000fd5b6005811061495b5761495b614935565b9052565b6020810161496d828461494b565b92915050565b60006020828403121561498557600080fd5b5035919050565b634e487b7160e01b600052604160045260246000fd5b60405161018081016001600160401b03811182821017156149c5576149c561498c565b60405290565b604051608081016001600160401b03811182821017156149c5576149c561498c565b604051601f8201601f191681016001600160401b0381118282101715614a1557614a1561498c565b604052919050565b600082601f830112614a2e57600080fd5b81356001600160401b03811115614a4757614a4761498c565b614a5a601f8201601f19166020016149ed565b818152846020838601011115614a6f57600080fd5b816020850160208301376000918101602001919091529392505050565b60008083601f840112614a9e57600080fd5b5081356001600160401b03811115614ab557600080fd5b602083019150836020828501011115614acd57600080fd5b9250929050565b63ffffffff8116811461424757600080fd5b803561490c81614ad4565b6001600160601b038116811461424757600080fd5b803561490c81614af1565b803560ff8116811461490c57600080fd5b6000806000806000806000806000806101008b8d031215614b4257600080fd5b8a356001600160401b0380821115614b5957600080fd5b614b658e838f01614a1d565b9b5060208d0135915080821115614b7b57600080fd5b614b878e838f01614a8c565b909b509950899150614b9b60408e01614901565b9850614ba960608e01614ae6565b9750614bb760808e01614901565b965060a08d0135915080821115614bcd57600080fd5b50614bda8d828e01614a8c565b9095509350614bed905060c08c01614b06565b9150614bfb60e08c01614b11565b90509295989b9194979a5092959850565b60008060408385031215614c1f57600080fd5b82356001600160401b0380821115614c3657600080fd5b614c4286838701614a1d565b93506020850135915080821115614c5857600080fd5b50614c6585828601614a1d565b9150509250929050565b60008060208385031215614c8257600080fd5b82356001600160401b03811115614c9857600080fd5b614ca485828601614a8c565b90969095509350505050565b60005b83811015614ccb578181015183820152602001614cb3565b50506000910152565b60008151808452614cec816020860160208601614cb0565b601f01601f19169290920160200192915050565b606081526000614d136060830186614cd4565b8281036020840152614d258186614cd4565b91505060018060a01b0383166040830152949350505050565b600080600060608486031215614d5357600080fd5b83356001600160401b0380821115614d6a57600080fd5b614d7687838801614a1d565b94506020860135915080821115614d8c57600080fd5b614d9887838801614a1d565b93506040860135915080821115614dae57600080fd5b50614dbb86828701614a1d565b9150509250925092565b8215158152604060208201526000614de06040830184614cd4565b949350505050565b6003811061495b5761495b614935565b60006020808301818452808551808352604092508286019150828160051b87010184880160005b83811015614e8a57888303603f19018552815180516001600160a01b0316845287810151608089860181905290614e5882870182614cd4565b91505087820151614e6b89870182614de8565b5060609182015194909101939093529386019390860190600101614e1f565b509098975050505050505050565b60008060408385031215614eab57600080fd5b8235614eb6816148ec565b91506020830135614ec6816148ec565b809150509250929050565b606081526000614ee46060830186614cd4565b6001600160a01b03851660208401529050614de0604083018461494b565b60006001600160401b03821115614f1b57614f1b61498c565b5060051b60200190565b600080600060608486031215614f3a57600080fd5b83356001600160401b0380821115614f5157600080fd5b614f5d87838801614a1d565b9450602091508186013581811115614f7457600080fd5b614f8088828901614a1d565b945050604086013581811115614f9557600080fd5b86019050601f81018713614fa857600080fd5b8035614fbb614fb682614f02565b6149ed565b81815260059190911b82018301908381019089831115614fda57600080fd5b928401925b82841015615001578335614ff2816148ec565b82529284019290840190614fdf565b80955050505050509250925092565b60018060a01b0381511682526000602082015160406020850152614de06040850182614cd4565b60608152600061504a6060830186614cd4565b6001600160a01b0385166020840152828103604084015261506b8185615010565b9695505050505050565b60006020808301818452808551808352604092508286019150828160051b8701018488016000805b8481101561514357603f198a8503018652825160808151865289820151818b8801526150cb82880182614cd4565b915050888201518682038a8801526150e38282614cd4565b606093840151888203948901949094528351808252938c0193869350908c0191505b8083101561512e5783516001600160a01b03168252928b019260019290920191908b0190615105565b50978a0197955050509187019160010161509d565b50919998505050505050505050565b6001600160a01b038516815260806020820181905260009061517690830186614cd4565b90506151856040830185614de8565b82606083015295945050505050565b600081518084526020808501808196508360051b8101915082860160005b858110156152335782840389528151608081518187526151d482880182614cd4565b838901516001600160a01b0316888a0152604080850151898303828b015291935091506152018382614cd4565b925050506060808301519250868203818801525061521f8183614cd4565b9a87019a95505050908401906001016151b2565b5091979650505050505050565b60208152600061492e6020830184615194565b600081518084526020808501808196508360051b8101915082860160005b8581101561523357828403895281516060815181875261529382880182614cd4565b91505086820151868203888801526152ab8282614cd4565b6040938401516001600160a01b031697909301969096525098850198935090840190600101615271565b60208152600061492e6020830184615253565b8381526060602082015260006153016060830185614cd4565b828103604084015261506b8185614cd4565b60006020828403121561532557600080fd5b81356001600160401b0381111561533b57600080fd5b614de084828501614a1d565b60808152600061535a6080830187614cd4565b6001600160a01b0386166020840152828103604084015261537b8186614cd4565b9050828103606084015261538f8185614cd4565b979650505050505050565b600080604083850312156153ad57600080fd5b82356153b8816148ec565b915060208301356001600160401b038111156153d357600080fd5b614c6585828601614a1d565b60006020808301818452808551808352604092508286019150828160051b87010184880160005b83811015614e8a57603f19898403018552815160c0815181865261542c82870182614cd4565b915050888201518582038a8701526154448282615253565b838a01516001600160a01b0316878b0152606080850151888303828a015291935091506154718382615253565b925050506080808301518683038288015261548c8382615010565b9250505060a080830151925085820381870152506154aa8183615194565b968901969450505090860190600101615406565b805161490c81614ad4565b805161490c81614af1565b805162ffffff8116811461490c57600080fd5b805161ffff8116811461490c57600080fd5b805161490c816148ec565b600082601f83011261551557600080fd5b81516020615525614fb683614f02565b82815260059290921b8401810191818101908684111561554457600080fd5b8286015b8481101561556857805161555b816148ec565b8352918301918301615548565b509695505050505050565b600080600083850361022081121561558a57600080fd5b608081121561559857600080fd5b6155a06149cb565b85516155ab81614ad4565b815260208601516155bb81614af1565b602082015260408681015190820152606080870151908201529350610180607f1982018113156155ea57600080fd5b6155f26149a2565b9150615600608087016154be565b825261560e60a087016154be565b602083015261561f60c087016154d4565b604083015261563060e087016154be565b60608301526101006156438188016154d4565b60808401526101206156568189016154e7565b60a0850152610140615669818a016154c9565b60c086015261016061567c818b016154be565b60e0870152848a0151848701526101a08a0151838701526156a06101c08b016154f9565b828701526156b16101e08b016154f9565b90860152505050506102008501519092506001600160401b038111156156d657600080fd5b614dbb86828701615504565b81835281816020850137506000828201602090810191909152601f909101601f19169091010190565b600061012080835261571f8184018f614cd4565b90508281036020840152615734818d8f6156e2565b6001600160a01b038c8116604086015263ffffffff8c1660608601528a8116608086015284820360a086015290915061576e82898b6156e2565b6001600160601b039790971660c085015260ff9590951660e0840152505091166101009091015298975050505050505050565b6001600160e01b03198316815281516000906157c4816004850160208701614cb0565b919091016004019392505050565b6001600160a01b03841681526001600160601b038316602082015260606040820181905260009061580590830184614cd4565b95945050505050565b60006020828403121561582057600080fd5b8151801515811461492e57600080fd5b634e487b7160e01b600052601160045260246000fd5b8082018082111561496d5761496d615830565b8181038181111561496d5761496d615830565b600181811c9082168061588057607f821691505b6020821081036158a057634e487b7160e01b600052602260045260246000fd5b50919050565b601f8211156158ec57600081815260208120601f850160051c810160208610156158cd5750805b601f850160051c820191505b8181101561365b578281556001016158d9565b505050565b81516001600160401b0381111561590a5761590a61498c565b61591e81615918845461586c565b846158a6565b602080601f831160018114615953576000841561593b5750858301515b600019600386901b1c1916600185901b17855561365b565b600085815260208120601f198616915b8281101561598257888601518255948401946001909101908401615963565b50858210156159a05787850151600019600388901b60f8161c191681555b5050505050600190811b01905550565b6001600160a01b0383168152604060208201819052600090614de090830184614cd4565b6001600160a01b038416815260406020820181905260009061580590830184866156e2565b60006020808385031215615a0c57600080fd5b82356001600160401b0380821115615a2357600080fd5b818501915085601f830112615a3757600080fd5b8135615a45614fb682614f02565b81815260059190911b83018401908481019088831115615a6457600080fd5b8585015b83811015615b0757803585811115615a805760008081fd5b86016080818c03601f1901811315615a985760008081fd5b615aa06149cb565b89830135615aad816148ec565b815260408381013589811115615ac35760008081fd5b615ad18f8d83880101614a1d565b8c8401525060608085013560038110615aea5760008081fd5b918301919091529190920135908201528352918601918601615a68565b5098975050505050505050565b634e487b7160e01b600052603260045260246000fd5b600061ffff808316818103615b4157615b41615830565b6001019392505050565b818103615b56575050565b615b60825461586c565b6001600160401b03811115615b7757615b7761498c565b615b8581615918845461586c565b6000601f821160018114615bb95760008315615ba15750848201545b600019600385901b1c1916600184901b1784556120b2565b600085815260209020601f19841690600086815260209020845b83811015615bf35782860154825560019586019590910190602001615bd3565b50858310156159a05793015460001960f8600387901b161c19169092555050600190811b01905550565b600060208284031215615c2f57600080fd5b505191905056fea26469706673582212206e5ceff54741ee3bc9d3203d45874d7a32c7a8eeca4e1646afdefef1a61335cb64736f6c63430008100033",
  "linkReferences": {},
  "deployedLinkReferences": {}
}