{
    "_format": "hh-sol-artifact-1",
    "contractName": "Community",
    "sourceName": "contracts/Community.sol",
    "abi": [
        {
            "inputs": [
                {
                    "internalType": "address",
                    "name": "_treasury",
                    "type": "address"
                },
                {
                    "internalType": "contract LinkTokenInterface",
                    "name": "_link",
                    "type": "address"
                },
                {
                    "internalType": "address",
                    "name": "_registrar",
                    "type": "address"
                },
                {
                    "internalType": "contract AutomationRegistryInterface",
                    "name": "_registry",
                    "type": "address"
                }
            ],
            "stateMutability": "nonpayable",
            "type": "constructor"
        },
        {
            "inputs": [],
            "name": "AlreadyAMember",
            "type": "error"
        },
        {
            "inputs": [],
            "name": "AlreadyANutrionist",
            "type": "error"
        },
        {
            "inputs": [],
            "name": "InsufficientPayment",
            "type": "error"
        },
        {
            "inputs": [],
            "name": "InvalidApplicant",
            "type": "error"
        },
        {
            "inputs": [],
            "name": "InvalidDeadline",
            "type": "error"
        },
        {
            "inputs": [],
            "name": "InvalidSubStatus",
            "type": "error"
        },
        {
            "inputs": [
                {
                    "internalType": "string",
                    "name": "message",
                    "type": "string"
                }
            ],
            "name": "UnauthorizedApplication",
            "type": "error"
        },
        {
            "inputs": [
                {
                    "internalType": "address",
                    "name": "caller",
                    "type": "address"
                }
            ],
            "name": "UnauthorizedMember",
            "type": "error"
        },
        {
            "inputs": [
                {
                    "internalType": "address",
                    "name": "caller",
                    "type": "address"
                }
            ],
            "name": "UnauthorizedNutritionist",
            "type": "error"
        },
        {
            "anonymous": false,
            "inputs": [
                {
                    "indexed": false,
                    "internalType": "address",
                    "name": "applicant",
                    "type": "address"
                }
            ],
            "name": "ApplicationApproved",
            "type": "event"
        },
        {
            "anonymous": false,
            "inputs": [
                {
                    "indexed": false,
                    "internalType": "address",
                    "name": "applicant",
                    "type": "address"
                },
                {
                    "indexed": false,
                    "internalType": "string",
                    "name": "dataURI",
                    "type": "string"
                }
            ],
            "name": "NewApplication",
            "type": "event"
        },
        {
            "anonymous": false,
            "inputs": [
                {
                    "indexed": false,
                    "internalType": "address",
                    "name": "user",
                    "type": "address"
                },
                {
                    "indexed": false,
                    "internalType": "string",
                    "name": "dataURI",
                    "type": "string"
                }
            ],
            "name": "NewSignUp",
            "type": "event"
        },
        {
            "anonymous": false,
            "inputs": [
                {
                    "indexed": true,
                    "internalType": "address",
                    "name": "previousOwner",
                    "type": "address"
                },
                {
                    "indexed": true,
                    "internalType": "address",
                    "name": "newOwner",
                    "type": "address"
                }
            ],
            "name": "OwnershipTransferred",
            "type": "event"
        },
        {
            "inputs": [
                {
                    "internalType": "uint256",
                    "name": "",
                    "type": "uint256"
                }
            ],
            "name": "allArticles",
            "outputs": [
                {
                    "internalType": "string",
                    "name": "title",
                    "type": "string"
                },
                {
                    "internalType": "address",
                    "name": "author",
                    "type": "address"
                },
                {
                    "internalType": "string",
                    "name": "authorName",
                    "type": "string"
                },
                {
                    "internalType": "string",
                    "name": "content",
                    "type": "string"
                }
            ],
            "stateMutability": "view",
            "type": "function"
        },
        {
            "inputs": [
                {
                    "internalType": "uint256",
                    "name": "",
                    "type": "uint256"
                }
            ],
            "name": "allFitnessPlans",
            "outputs": [
                {
                    "internalType": "string",
                    "name": "name",
                    "type": "string"
                },
                {
                    "internalType": "string",
                    "name": "fitnessDescription",
                    "type": "string"
                },
                {
                    "internalType": "address",
                    "name": "creator",
                    "type": "address"
                }
            ],
            "stateMutability": "view",
            "type": "function"
        },
        {
            "inputs": [
                {
                    "internalType": "uint256",
                    "name": "",
                    "type": "uint256"
                }
            ],
            "name": "allMealPlans",
            "outputs": [
                {
                    "internalType": "string",
                    "name": "mealName",
                    "type": "string"
                },
                {
                    "internalType": "string",
                    "name": "mealDescription",
                    "type": "string"
                },
                {
                    "internalType": "address",
                    "name": "creator",
                    "type": "address"
                }
            ],
            "stateMutability": "view",
            "type": "function"
        },
        {
            "inputs": [
                {
                    "internalType": "uint256",
                    "name": "",
                    "type": "uint256"
                }
            ],
            "name": "allNutritionists",
            "outputs": [
                {
                    "internalType": "string",
                    "name": "nutritionistPersonalData",
                    "type": "string"
                },
                {
                    "internalType": "address",
                    "name": "nutritionistAddress",
                    "type": "address"
                },
                {
                    "components": [
                        {
                            "internalType": "address",
                            "name": "consultant",
                            "type": "address"
                        },
                        {
                            "internalType": "string",
                            "name": "consultationDescription",
                            "type": "string"
                        }
                    ],
                    "internalType": "struct Community.ConsultationServices",
                    "name": "consultationServices",
                    "type": "tuple"
                }
            ],
            "stateMutability": "view",
            "type": "function"
        },
        {
            "inputs": [
                {
                    "internalType": "uint256",
                    "name": "",
                    "type": "uint256"
                }
            ],
            "name": "allNutritionistsAddresses",
            "outputs": [
                {
                    "internalType": "address",
                    "name": "",
                    "type": "address"
                }
            ],
            "stateMutability": "view",
            "type": "function"
        },
        {
            "inputs": [
                {
                    "internalType": "uint256",
                    "name": "",
                    "type": "uint256"
                }
            ],
            "name": "allNutritionistsApplicants",
            "outputs": [
                {
                    "internalType": "address",
                    "name": "",
                    "type": "address"
                }
            ],
            "stateMutability": "view",
            "type": "function"
        },
        {
            "inputs": [
                {
                    "internalType": "uint256",
                    "name": "",
                    "type": "uint256"
                }
            ],
            "name": "allNutritionistsApplications",
            "outputs": [
                {
                    "internalType": "string",
                    "name": "dataURI",
                    "type": "string"
                },
                {
                    "internalType": "address",
                    "name": "nutritionistAddress",
                    "type": "address"
                },
                {
                    "internalType": "enum Community.NutritionistApplicationStatus",
                    "name": "applicationStatus",
                    "type": "uint8"
                }
            ],
            "stateMutability": "view",
            "type": "function"
        },
        {
            "inputs": [
                {
                    "internalType": "uint256",
                    "name": "",
                    "type": "uint256"
                }
            ],
            "name": "allUserAddresses",
            "outputs": [
                {
                    "internalType": "address",
                    "name": "",
                    "type": "address"
                }
            ],
            "stateMutability": "view",
            "type": "function"
        },
        {
            "inputs": [
                {
                    "internalType": "uint256",
                    "name": "",
                    "type": "uint256"
                }
            ],
            "name": "allUsers",
            "outputs": [
                {
                    "internalType": "address",
                    "name": "userAddress",
                    "type": "address"
                },
                {
                    "internalType": "string",
                    "name": "userPersonalData",
                    "type": "string"
                },
                {
                    "internalType": "enum Community.UserSubscriptionStatus",
                    "name": "subStatus",
                    "type": "uint8"
                },
                {
                    "internalType": "uint256",
                    "name": "subDeadline",
                    "type": "uint256"
                }
            ],
            "stateMutability": "view",
            "type": "function"
        },
        {
            "inputs": [
                {
                    "internalType": "address",
                    "name": "",
                    "type": "address"
                }
            ],
            "name": "applicantToIndex",
            "outputs": [
                {
                    "internalType": "uint256",
                    "name": "",
                    "type": "uint256"
                }
            ],
            "stateMutability": "view",
            "type": "function"
        },
        {
            "inputs": [
                {
                    "internalType": "string",
                    "name": "dataURI",
                    "type": "string"
                }
            ],
            "name": "applyForNutritionistRole",
            "outputs": [],
            "stateMutability": "payable",
            "type": "function"
        },
        {
            "inputs": [
                {
                    "internalType": "address",
                    "name": "applicant",
                    "type": "address"
                },
                {
                    "internalType": "string",
                    "name": "nutritionistNfturi",
                    "type": "string"
                }
            ],
            "name": "approveNutritionistRole",
            "outputs": [],
            "stateMutability": "nonpayable",
            "type": "function"
        },
        {
            "inputs": [],
            "name": "cancelNutritionistApplication",
            "outputs": [],
            "stateMutability": "nonpayable",
            "type": "function"
        },
        {
            "inputs": [
                {
                    "internalType": "bytes",
                    "name": "",
                    "type": "bytes"
                }
            ],
            "name": "checkUpkeep",
            "outputs": [
                {
                    "internalType": "bool",
                    "name": "upkeepNeeded",
                    "type": "bool"
                },
                {
                    "internalType": "bytes",
                    "name": "performData",
                    "type": "bytes"
                }
            ],
            "stateMutability": "view",
            "type": "function"
        },
        {
            "inputs": [
                {
                    "internalType": "string",
                    "name": "_consultationDesc",
                    "type": "string"
                }
            ],
            "name": "createConsultation",
            "outputs": [],
            "stateMutability": "nonpayable",
            "type": "function"
        },
        {
            "inputs": [
                {
                    "internalType": "string",
                    "name": "_fitnessName",
                    "type": "string"
                },
                {
                    "internalType": "string",
                    "name": "fitnessDesc",
                    "type": "string"
                }
            ],
            "name": "createFitnessPlan",
            "outputs": [],
            "stateMutability": "nonpayable",
            "type": "function"
        },
        {
            "inputs": [
                {
                    "internalType": "string",
                    "name": "_mealName",
                    "type": "string"
                },
                {
                    "internalType": "string",
                    "name": "mealPlanDesc",
                    "type": "string"
                }
            ],
            "name": "createMealPlan",
            "outputs": [],
            "stateMutability": "nonpayable",
            "type": "function"
        },
        {
            "inputs": [],
            "name": "getAllMembers",
            "outputs": [
                {
                    "components": [
                        {
                            "internalType": "address",
                            "name": "userAddress",
                            "type": "address"
                        },
                        {
                            "internalType": "string",
                            "name": "userPersonalData",
                            "type": "string"
                        },
                        {
                            "internalType": "enum Community.UserSubscriptionStatus",
                            "name": "subStatus",
                            "type": "uint8"
                        },
                        {
                            "internalType": "uint256",
                            "name": "subDeadline",
                            "type": "uint256"
                        }
                    ],
                    "internalType": "struct Community.User[]",
                    "name": "_users",
                    "type": "tuple[]"
                }
            ],
            "stateMutability": "view",
            "type": "function"
        },
        {
            "inputs": [],
            "name": "getAllNutritionists",
            "outputs": [
                {
                    "components": [
                        {
                            "internalType": "string",
                            "name": "nutritionistPersonalData",
                            "type": "string"
                        },
                        {
                            "components": [
                                {
                                    "internalType": "string",
                                    "name": "mealName",
                                    "type": "string"
                                },
                                {
                                    "internalType": "string",
                                    "name": "mealDescription",
                                    "type": "string"
                                },
                                {
                                    "internalType": "address",
                                    "name": "creator",
                                    "type": "address"
                                }
                            ],
                            "internalType": "struct Community.MealPlans[]",
                            "name": "nutritionistMealplans",
                            "type": "tuple[]"
                        },
                        {
                            "internalType": "address",
                            "name": "nutritionistAddress",
                            "type": "address"
                        },
                        {
                            "components": [
                                {
                                    "internalType": "string",
                                    "name": "name",
                                    "type": "string"
                                },
                                {
                                    "internalType": "string",
                                    "name": "fitnessDescription",
                                    "type": "string"
                                },
                                {
                                    "internalType": "address",
                                    "name": "creator",
                                    "type": "address"
                                }
                            ],
                            "internalType": "struct Community.FitnessPlans[]",
                            "name": "fitnessPlans",
                            "type": "tuple[]"
                        },
                        {
                            "components": [
                                {
                                    "internalType": "address",
                                    "name": "consultant",
                                    "type": "address"
                                },
                                {
                                    "internalType": "string",
                                    "name": "consultationDescription",
                                    "type": "string"
                                }
                            ],
                            "internalType": "struct Community.ConsultationServices",
                            "name": "consultationServices",
                            "type": "tuple"
                        },
                        {
                            "components": [
                                {
                                    "internalType": "string",
                                    "name": "title",
                                    "type": "string"
                                },
                                {
                                    "internalType": "address",
                                    "name": "author",
                                    "type": "address"
                                },
                                {
                                    "internalType": "string",
                                    "name": "authorName",
                                    "type": "string"
                                },
                                {
                                    "internalType": "string",
                                    "name": "content",
                                    "type": "string"
                                }
                            ],
                            "internalType": "struct Community.Articles[]",
                            "name": "nutritionistArticles",
                            "type": "tuple[]"
                        }
                    ],
                    "internalType": "struct Community.Nutritionist[]",
                    "name": "_nutritionists",
                    "type": "tuple[]"
                }
            ],
            "stateMutability": "view",
            "type": "function"
        },
        {
            "inputs": [],
            "name": "i_link",
            "outputs": [
                {
                    "internalType": "contract LinkTokenInterface",
                    "name": "",
                    "type": "address"
                }
            ],
            "stateMutability": "view",
            "type": "function"
        },
        {
            "inputs": [],
            "name": "i_registry",
            "outputs": [
                {
                    "internalType": "contract AutomationRegistryInterface",
                    "name": "",
                    "type": "address"
                }
            ],
            "stateMutability": "view",
            "type": "function"
        },
        {
            "inputs": [
                {
                    "internalType": "string",
                    "name": "_userData",
                    "type": "string"
                },
                {
                    "internalType": "string",
                    "name": "nftUri",
                    "type": "string"
                }
            ],
            "name": "joinCommunity",
            "outputs": [],
            "stateMutability": "payable",
            "type": "function"
        },
        {
            "inputs": [],
            "name": "nutritionistApplicationFee",
            "outputs": [
                {
                    "internalType": "uint256",
                    "name": "",
                    "type": "uint256"
                }
            ],
            "stateMutability": "view",
            "type": "function"
        },
        {
            "inputs": [
                {
                    "internalType": "address",
                    "name": "",
                    "type": "address"
                }
            ],
            "name": "nutritionistApplicationStatus",
            "outputs": [
                {
                    "internalType": "enum Community.NutritionistApplicationStatus",
                    "name": "",
                    "type": "uint8"
                }
            ],
            "stateMutability": "view",
            "type": "function"
        },
        {
            "inputs": [
                {
                    "internalType": "address",
                    "name": "",
                    "type": "address"
                }
            ],
            "name": "nutritionistApplications",
            "outputs": [
                {
                    "internalType": "string",
                    "name": "dataURI",
                    "type": "string"
                },
                {
                    "internalType": "address",
                    "name": "nutritionistAddress",
                    "type": "address"
                },
                {
                    "internalType": "enum Community.NutritionistApplicationStatus",
                    "name": "applicationStatus",
                    "type": "uint8"
                }
            ],
            "stateMutability": "view",
            "type": "function"
        },
        {
            "inputs": [],
            "name": "nutritionistNFT",
            "outputs": [
                {
                    "internalType": "contract INutritionistNFT",
                    "name": "",
                    "type": "address"
                }
            ],
            "stateMutability": "view",
            "type": "function"
        },
        {
            "inputs": [
                {
                    "internalType": "address",
                    "name": "",
                    "type": "address"
                }
            ],
            "name": "nutritionists",
            "outputs": [
                {
                    "internalType": "string",
                    "name": "nutritionistPersonalData",
                    "type": "string"
                },
                {
                    "internalType": "address",
                    "name": "nutritionistAddress",
                    "type": "address"
                },
                {
                    "components": [
                        {
                            "internalType": "address",
                            "name": "consultant",
                            "type": "address"
                        },
                        {
                            "internalType": "string",
                            "name": "consultationDescription",
                            "type": "string"
                        }
                    ],
                    "internalType": "struct Community.ConsultationServices",
                    "name": "consultationServices",
                    "type": "tuple"
                }
            ],
            "stateMutability": "view",
            "type": "function"
        },
        {
            "inputs": [],
            "name": "owner",
            "outputs": [
                {
                    "internalType": "address",
                    "name": "",
                    "type": "address"
                }
            ],
            "stateMutability": "view",
            "type": "function"
        },
        {
            "inputs": [
                {
                    "internalType": "bytes",
                    "name": "performData",
                    "type": "bytes"
                }
            ],
            "name": "performUpkeep",
            "outputs": [],
            "stateMutability": "nonpayable",
            "type": "function"
        },
        {
            "inputs": [
                {
                    "internalType": "string",
                    "name": "_title",
                    "type": "string"
                },
                {
                    "internalType": "string",
                    "name": "_authorName",
                    "type": "string"
                },
                {
                    "internalType": "string",
                    "name": "_content",
                    "type": "string"
                }
            ],
            "name": "publishArticle",
            "outputs": [],
            "stateMutability": "nonpayable",
            "type": "function"
        },
        {
            "inputs": [
                {
                    "internalType": "string",
                    "name": "name",
                    "type": "string"
                },
                {
                    "internalType": "bytes",
                    "name": "encryptedEmail",
                    "type": "bytes"
                },
                {
                    "internalType": "address",
                    "name": "upkeepContract",
                    "type": "address"
                },
                {
                    "internalType": "uint32",
                    "name": "gasLimit",
                    "type": "uint32"
                },
                {
                    "internalType": "address",
                    "name": "adminAddress",
                    "type": "address"
                },
                {
                    "internalType": "bytes",
                    "name": "checkData",
                    "type": "bytes"
                },
                {
                    "internalType": "uint96",
                    "name": "amount",
                    "type": "uint96"
                },
                {
                    "internalType": "uint8",
                    "name": "source",
                    "type": "uint8"
                }
            ],
            "name": "registerAndPredictID",
            "outputs": [],
            "stateMutability": "nonpayable",
            "type": "function"
        },
        {
            "inputs": [],
            "name": "registrar",
            "outputs": [
                {
                    "internalType": "address",
                    "name": "",
                    "type": "address"
                }
            ],
            "stateMutability": "view",
            "type": "function"
        },
        {
            "inputs": [
                {
                    "internalType": "address",
                    "name": "applicant",
                    "type": "address"
                }
            ],
            "name": "rejectNutritionistRole",
            "outputs": [],
            "stateMutability": "nonpayable",
            "type": "function"
        },
        {
            "inputs": [],
            "name": "renewSubscription",
            "outputs": [],
            "stateMutability": "nonpayable",
            "type": "function"
        },
        {
            "inputs": [],
            "name": "renounceOwnership",
            "outputs": [],
            "stateMutability": "nonpayable",
            "type": "function"
        },
        {
            "inputs": [
                {
                    "internalType": "address",
                    "name": "_member",
                    "type": "address"
                }
            ],
            "name": "revokeUser",
            "outputs": [],
            "stateMutability": "nonpayable",
            "type": "function"
        },
        {
            "inputs": [
                {
                    "internalType": "address",
                    "name": "_userNFT",
                    "type": "address"
                },
                {
                    "internalType": "address",
                    "name": "_nutritionistNFT",
                    "type": "address"
                }
            ],
            "name": "setNFTs",
            "outputs": [],
            "stateMutability": "nonpayable",
            "type": "function"
        },
        {
            "inputs": [],
            "name": "subscriptionDuration",
            "outputs": [
                {
                    "internalType": "uint256",
                    "name": "",
                    "type": "uint256"
                }
            ],
            "stateMutability": "view",
            "type": "function"
        },
        {
            "inputs": [
                {
                    "internalType": "address",
                    "name": "newOwner",
                    "type": "address"
                }
            ],
            "name": "transferOwnership",
            "outputs": [],
            "stateMutability": "nonpayable",
            "type": "function"
        },
        {
            "inputs": [],
            "name": "treasury",
            "outputs": [
                {
                    "internalType": "address",
                    "name": "",
                    "type": "address"
                }
            ],
            "stateMutability": "view",
            "type": "function"
        },
        {
            "inputs": [],
            "name": "userApplicationFee",
            "outputs": [
                {
                    "internalType": "uint256",
                    "name": "",
                    "type": "uint256"
                }
            ],
            "stateMutability": "view",
            "type": "function"
        },
        {
            "inputs": [],
            "name": "userNFT",
            "outputs": [
                {
                    "internalType": "contract IUserNFT",
                    "name": "",
                    "type": "address"
                }
            ],
            "stateMutability": "view",
            "type": "function"
        },
        {
            "inputs": [
                {
                    "internalType": "address",
                    "name": "",
                    "type": "address"
                }
            ],
            "name": "userToIndex",
            "outputs": [
                {
                    "internalType": "uint256",
                    "name": "",
                    "type": "uint256"
                }
            ],
            "stateMutability": "view",
            "type": "function"
        }
    ],
    "bytecode": "0x6101006040526000805463ffffffff60a01b1916631b2ceb3360a11b17905562278d006007553480156200003257600080fd5b5060405162004d3b38038062004d3b8339810160408190526200005591620000ec565b620000603362000083565b6001600160a01b0393841660e052918316608052821660a0521660c05262000154565b600080546001600160a01b038381166001600160a01b0319831681178455604051919092169283917f8be0079c531659141344cd1fd0a4f28419497f9722a3daafe3b4186f6b6457e09190a35050565b6001600160a01b0381168114620000e957600080fd5b50565b600080600080608085870312156200010357600080fd5b84516200011081620000d3565b60208601519094506200012381620000d3565b60408601519093506200013681620000d3565b60608601519092506200014981620000d3565b939692955090935050565b60805160a05160c05160e051614b7c620001bf6000396000818161047801528181610ee5015261226a015260008181610381015281816108b501528181610a660152610b300152600081816103b501526109b101526000818161055101526109820152614b7c6000f3fe60806040526004361061025c5760003560e01c80638ce1118d11610144578063d0e4b8f6116100b6578063e52f011c1161007a578063e52f011c146107c5578063ec04cfa9146107e7578063ef097fc414610807578063f11c85a814610827578063f2fde38b14610847578063f621f9aa1461086757600080fd5b8063d0e4b8f61461071a578063d49f077e1461074a578063d7465f201461076a578063dd4320c814610785578063dd96a186146107a557600080fd5b80639f191e08116101085780639f191e081461064f578063a2bdedf41461066f578063a862c3e31461069f578063b4d2fd1e146106ba578063b5aacf84146106da578063ca5da7af146106ed57600080fd5b80638ce1118d146105935780638d5091ad146105c25780638da5cb5b146105e25780638fc64e5d14610600578063935ca0f31461062f57600080fd5b80635b2656eb116101dd57806370309b4c116101a157806370309b4c146104dd578063715018a6146104f25780637a94a633146105075780637c0f6b351461051d5780637d253aff1461053f5780637f6c7f101461057357600080fd5b80635b2656eb1461042657806361647b5b1461044657806361d027b3146104665780636e04ff0d1461049a5780636e307981146104c857600080fd5b80631ff74bc0116102245780631ff74bc01461035c5780632a6636061461036f5780632b20e397146103a3578063447cc936146103d75780634585e33b1461040657600080fd5b806308505d571461026157806312f8a6ab146102a7578063167d05ff146102df57806318a9fb8a1461031a5780631c4e1dc71461033c575b600080fd5b34801561026d57600080fd5b5061029161027c3660046139c0565b600f6020526000908152604090205460ff1681565b60405161029e9190613a0e565b60405180910390f35b3480156102b357600080fd5b506102c76102c2366004613a22565b610887565b6040516001600160a01b03909116815260200161029e565b3480156102eb57600080fd5b5061030c6102fa3660046139c0565b60056020526000908152604090205481565b60405190815260200161029e565b34801561032657600080fd5b5061033a610335366004613bd1565b6108b1565b005b34801561034857600080fd5b506102c7610357366004613a22565b610bd7565b61033a61036a366004613cbb565b610be7565b34801561037b57600080fd5b506102c77f000000000000000000000000000000000000000000000000000000000000000081565b3480156103af57600080fd5b506102c77f000000000000000000000000000000000000000000000000000000000000000081565b3480156103e357600080fd5b506103f76103f2366004613a22565b610f71565b60405161029e93929190613d4c565b34801561041257600080fd5b5061033a610421366004613cbb565b6110c4565b34801561043257600080fd5b5061033a610441366004613d8a565b61113f565b34801561045257600080fd5b506004546102c7906001600160a01b031681565b34801561047257600080fd5b506102c77f000000000000000000000000000000000000000000000000000000000000000081565b3480156104a657600080fd5b506104ba6104b5366004613cbb565b6112cc565b60405161029e929190613e11565b3480156104d457600080fd5b5061033a6114ef565b3480156104e957600080fd5b5061033a611718565b3480156104fe57600080fd5b5061033a611862565b34801561051357600080fd5b5061030c60075481565b34801561052957600080fd5b50610532611876565b60405161029e9190613e44565b34801561054b57600080fd5b506102c77f000000000000000000000000000000000000000000000000000000000000000081565b34801561057f57600080fd5b5061033a61058e366004613ee4565b6119ba565b34801561059f57600080fd5b506105b36105ae366004613a22565b6119f0565b60405161029e93929190613f1d565b3480156105ce57600080fd5b506102c76105dd366004613a22565b611ac2565b3480156105ee57600080fd5b506000546001600160a01b03166102c7565b34801561060c57600080fd5b5061062061061b3660046139c0565b611ad2565b60405161029e93929190613f75565b34801561063b57600080fd5b5061062061064a366004613a22565b611c34565b34801561065b57600080fd5b5061033a61066a366004613fb3565b611c67565b34801561067b57600080fd5b5061068f61068a366004613a22565b611d31565b60405161029e9493929190614016565b3480156106ab57600080fd5b5061030c662386f26fc1000081565b3480156106c657600080fd5b5061033a6106d53660046139c0565b611e03565b61033a6106e8366004613fb3565b611ec0565b3480156106f957600080fd5b5061030c6107083660046139c0565b60066020526000908152604090205481565b34801561072657600080fd5b5061073a610735366004613a22565b6122f5565b60405161029e9493929190614058565b34801561075657600080fd5b5061033a6107653660046140ab565b6124dc565b34801561077657600080fd5b5061030c6611c37937e0800081565b34801561079157600080fd5b5061033a6107a03660046140f0565b6128b9565b3480156107b157600080fd5b506103f76107c0366004613a22565b61293d565b3480156107d157600080fd5b506107da61294d565b60405161029e9190614265565b3480156107f357600080fd5b506105b36108023660046139c0565b61305d565b34801561081357600080fd5b5061033a6108223660046139c0565b613078565b34801561083357600080fd5b5061033a610842366004613fb3565b613439565b34801561085357600080fd5b5061033a6108623660046139c0565b6134be565b34801561087357600080fd5b506003546102c7906001600160a01b031681565b6008818154811061089757600080fd5b6000918252602090912001546001600160a01b0316905081565b60007f00000000000000000000000000000000000000000000000000000000000000006001600160a01b0316631865c57d6040518163ffffffff1660e01b8152600401600060405180830381865afa158015610911573d6000803e3d6000fd5b505050506040513d6000823e601f3d908101601f19168201604052610939919081019061447b565b5050805160405191925063ffffffff169060009061096f908e908e908e908e908e908e908e908e908e908e903090602001614613565b60405160208183030381529060405290507f00000000000000000000000000000000000000000000000000000000000000006001600160a01b0316634000aea07f000000000000000000000000000000000000000000000000000000000000000087600060149054906101000a900460e01b856040516020016109f39291906146a9565b6040516020818303038152906040526040518463ffffffff1660e01b8152600401610a20939291906146da565b6020604051808303816000875af1158015610a3f573d6000803e3d6000fd5b505050506040513d601f19601f82011682018060405250810190610a639190614716565b507f00000000000000000000000000000000000000000000000000000000000000006001600160a01b0316631865c57d6040518163ffffffff1660e01b8152600401600060405180830381865afa158015610ac2573d6000803e3d6000fd5b505050506040513d6000823e601f3d908101601f19168201604052610aea919081019061447b565b5050805190935063ffffffff16610b0283600161474e565b8103610b82576000610b15600143614761565b60408051914060208301526bffffffffffffffffffffffff197f000000000000000000000000000000000000000000000000000000000000000060601b16908201526001600160e01b031960e086901b16605482015260580160408051601f198184030190525250610bc7565b60405162461bcd60e51b8152602060048201526015602482015274185d5d1bcb585c1c1c9bdd9948191a5cd8589b1959605a1b60448201526064015b60405180910390fd5b5050505050505050505050505050565b600a818154811061089757600080fd5b336000908152600c602052604090205460ff1615610c185760405163773aeddd60e11b815260040160405180910390fd5b6000610c2360015490565b336000908152600f602052604090205490915060ff166001816004811115610c4d57610c4d6139e4565b1480610c6a57506002816004811115610c6857610c686139e4565b145b15610cc35760405163157a0b0f60e31b815260206004820152602260248201527f436f6d6d756e6974793a20616c7265616479206170706c6965642f70656e64696044820152616e6760f01b6064820152608401610bbe565b6611c37937e08000341015610ceb5760405163cd1c886760e01b815260040160405180910390fd5b506040805160806020601f86018190040282018101909252606081018481526001926000929182918890889081908501838280828437600092019190915250505090825250336020820152604001836004811115610d4b57610d4b6139e4565b9052336000908152600560209081526040808320879055600f90915290208054919250839160ff19166001836004811115610d8857610d886139e4565b021790555033600090815260106020526040902081518291908190610dad90826147f9565b5060208201516001820180546001600160a01b039092166001600160a01b03198316811782556040850151926001600160a81b03191617600160a01b836004811115610dfb57610dfb6139e4565b021790555050600a805460018181019092557fc65a7bb8d6351c1cf70c95a316cc6a92839c986682d98bc35f958f4883f9d2a80180546001600160a01b03191633179055601180549182018155600052825183925060029091027f31ecc21a745e3968a04e9570e4425bc18fa8019c68028196b546d1669c200c6801908190610e8490826147f9565b5060208201516001820180546001600160a01b039092166001600160a01b03198316811782556040850151926001600160a81b03191617600160a01b836004811115610ed257610ed26139e4565b0217905550506040516001600160a01b037f00000000000000000000000000000000000000000000000000000000000000001691503480156108fc02916000818181858888f19350505050158015610f2e573d6000803e3d6000fd5b507f61d9c1c60d18166430e232b0032dc6dca6b6f8ecb9fae9972cd57989dd88020f338686604051610f62939291906148b8565b60405180910390a15050505050565b60128181548110610f8157600080fd5b9060005260206000209060030201600091509050806000018054610fa490614774565b80601f0160208091040260200160405190810160405280929190818152602001828054610fd090614774565b801561101d5780601f10610ff25761010080835404028352916020019161101d565b820191906000526020600020905b81548152906001019060200180831161100057829003601f168201915b50505050509080600101805461103290614774565b80601f016020809104026020016040519081016040528092919081815260200182805461105e90614774565b80156110ab5780601f10611080576101008083540402835291602001916110ab565b820191906000526020600020905b81548152906001019060200180831161108e57829003601f168201915b505050600290930154919250506001600160a01b031683565b60006110d2828401846148dd565b905060005b81518161ffff161015611139576000828261ffff16815181106110fc576110fc6149f8565b6020026020010151905060008160000151905081606001514211156111245761112481613078565b5050808061113190614a0e565b9150506110d7565b50505050565b611147613537565b336000908152600c602052604090205460ff166111795760405163349b3f2f60e21b8152336004820152602401610bbe565b336000818152600e602090815260408083208151608081018352888152808401959095529084018690526060840185905260068101805460018101825590845291909220835192939283926004029091019081906111d790826147f9565b5060208201516001820180546001600160a01b0319166001600160a01b039092169190911790556040820151600282019061121290826147f9565b506060820151600382019061122790826147f9565b505060168054600181018255600091909152825183925060049091027fd833147d7dc355ba459fc788f669e58cfaf9dc25ddcd0702e87d69c7b51242890190819061127290826147f9565b5060208201516001820180546001600160a01b0319166001600160a01b03909216919091179055604082015160028201906112ad90826147f9565b50606082015160038201906112c290826147f9565b5050505050505050565b600060606000806014805490506001600160401b038111156112f0576112f0613a3b565b60405190808252806020026020018201604052801561134c57816020015b6113396040805160808101825260008082526060602083015290918201908152602001600081525090565b81526020019060019003908161130e5790505b50905060005b60145461ffff821610156114c057600060148261ffff1681548110611379576113796149f8565b6000918252602091829020604080516080810190915260049092020180546001600160a01b0316825260018101805492939192918401916113b990614774565b80601f01602080910402602001604051908101604052809291908181526020018280546113e590614774565b80156114325780601f1061140757610100808354040283529160200191611432565b820191906000526020600020905b81548152906001019060200180831161141557829003601f168201915b505050918352505060028281015460209092019160ff1690811115611459576114596139e4565b600281111561146a5761146a6139e4565b8152602001600382015481525050905080606001514211156114ad5780838361ffff168151811061149d5761149d6149f8565b6020026020010181905250600193505b50806114b881614a0e565b915050611352565b50819350806040516020016114d59190613e44565b604051602081830303815290604052925050509250929050565b336000908152600b602052604090205460ff16156115225760405163bfadfc2760e01b8152336004820152602401610bbe565b336000818152600d60205260409020600301544281111561155657604051631da7447960e21b815260040160405180910390fd5b336000908152600d6020908152604080832081516080810190925280546001600160a01b03168252600181018054929391929184019161159590614774565b80601f01602080910402602001604051908101604052809291908181526020018280546115c190614774565b801561160e5780601f106115e35761010080835404028352916020019161160e565b820191906000526020600020905b8154815290600101906020018083116115f157829003601f168201915b505050918352505060028281015460209092019160ff1690811115611635576116356139e4565b6002811115611646576116466139e4565b815260039190910154602090910152905060028160400151600281111561166f5761166f6139e4565b1461168d57604051631294a20560e01b815260040160405180910390fd5b60016040828101829052336000908152600d6020908152919020835181546001600160a01b0319166001600160a01b039091161781559083015183928201906116d690826147f9565b5060408201518160020160006101000a81548160ff02191690836002811115611701576117016139e4565b021790555060608201518160030155905050505050565b336000908152600c602052604090205460ff1661174a5760405163349b3f2f60e21b8152336004820152602401610bbe565b336000818152600f602052604090205460ff166001816004811115611771576117716139e4565b1461178f5760405163b824136960e01b815260040160405180910390fd5b336000908152600c602052604090205460ff16156117c05760405163773aeddd60e11b815260040160405180910390fd5b336000818152600f602052604081205460ff16916117dd90613591565b9050600a81815481106117f2576117f26149f8565b6000918252602080832090910180546001600160a01b031916905533825260109052604081209061182382826136af565b50600190810180546001600160a81b0319169055336000908152600f60205260409020805460049450849260ff1990911690835b021790555050505050565b61186a613537565b61187460006135ff565b565b60606014805480602002602001604051908101604052809291908181526020016000905b828210156119b157600084815260209081902060408051608081019091526004850290910180546001600160a01b0316825260018101805492939192918401916118e390614774565b80601f016020809104026020016040519081016040528092919081815260200182805461190f90614774565b801561195c5780601f106119315761010080835404028352916020019161195c565b820191906000526020600020905b81548152906001019060200180831161193f57829003601f168201915b505050918352505060028281015460209092019160ff1690811115611983576119836139e4565b6002811115611994576119946139e4565b81526020016003820154815250508152602001906001019061189a565b50505050905090565b6119c2613537565b600480546001600160a01b039384166001600160a01b03199182161790915560038054929093169116179055565b60118181548110611a0057600080fd5b9060005260206000209060020201600091509050806000018054611a2390614774565b80601f0160208091040260200160405190810160405280929190818152602001828054611a4f90614774565b8015611a9c5780601f10611a7157610100808354040283529160200191611a9c565b820191906000526020600020905b815481529060010190602001808311611a7f57829003601f168201915b505050600190930154919250506001600160a01b0381169060ff600160a01b9091041683565b6009818154811061089757600080fd5b600e60205260009081526040902080548190611aed90614774565b80601f0160208091040260200160405190810160405280929190818152602001828054611b1990614774565b8015611b665780601f10611b3b57610100808354040283529160200191611b66565b820191906000526020600020905b815481529060010190602001808311611b4957829003601f168201915b5050506002840154604080518082019091526004860180546001600160a01b03908116835260058801805497989190941696909550919350916020840191611bad90614774565b80601f0160208091040260200160405190810160405280929190818152602001828054611bd990614774565b8015611c265780601f10611bfb57610100808354040283529160200191611c26565b820191906000526020600020905b815481529060010190602001808311611c0957829003601f168201915b505050505081525050905083565b60158181548110611c4457600080fd5b9060005260206000209060070201600091509050806000018054611aed90614774565b336000908152600c602052604090205460ff16611c995760405163349b3f2f60e21b8152336004820152602401610bbe565b336000818152600e6020908152604080832081516060810183528781528084018790529182019490945260038085018054600181018255908552929093208151919384930201908190611cec90826147f9565b5060208201516001820190611d0190826147f9565b5060409190910151600290910180546001600160a01b0319166001600160a01b0390921691909117905550505050565b60148181548110611d4157600080fd5b6000918252602090912060049091020180546001820180546001600160a01b03909216935090611d7090614774565b80601f0160208091040260200160405190810160405280929190818152602001828054611d9c90614774565b8015611de95780601f10611dbe57610100808354040283529160200191611de9565b820191906000526020600020905b815481529060010190602001808311611dcc57829003601f168201915b505050506002830154600390930154919260ff1691905084565b611e0b613537565b6001600160a01b0381166000908152600f6020526040902054819060ff166001816004811115611e3d57611e3d6139e4565b14611e5b5760405163b824136960e01b815260040160405180910390fd5b6001600160a01b0383166000908152600c602052604090205460ff1615611e955760405163773aeddd60e11b815260040160405180910390fd5b6001600160a01b0383166000908152600f602052604090208054600391829160ff1916600183611857565b336000908152600b602052604090205460ff1615611ef15760405163a929afd160e01b815260040160405180910390fd5b662386f26fc10000341015611f195760405163cd1c886760e01b815260040160405180910390fd5b6000611f2460025490565b336000908152600b60209081526040808320805460ff19166001908117909155600d835281842082516080810190935280546001600160a01b031683529081018054959650939491939092840191611f7b90614774565b80601f0160208091040260200160405190810160405280929190818152602001828054611fa790614774565b8015611ff45780601f10611fc957610100808354040283529160200191611ff4565b820191906000526020600020905b815481529060010190602001808311611fd757829003601f168201915b505050918352505060028281015460209092019160ff169081111561201b5761201b6139e4565b600281111561202c5761202c6139e4565b81526003919091015460209182015233825281018590526001604082015260075490915061205a904261474e565b6060820152336000908152600d60209081526040909120825181546001600160a01b0319166001600160a01b039091161781559082015182919060018201906120a390826147f9565b5060408201518160020160006101000a81548160ff021916908360028111156120ce576120ce6139e4565b021790555060609190910151600390910155336000908152600660209081526040822084905560148054600181018255925282517fce6d7b5282bd9a3661ae061feed1dbda4e52ab073b1f9285be6e155d9c38d4ec600490930292830180546001600160a01b0319166001600160a01b039092169190911781559083015183927fce6d7b5282bd9a3661ae061feed1dbda4e52ab073b1f9285be6e155d9c38d4ed019061217b90826147f9565b5060408201518160020160006101000a81548160ff021916908360028111156121a6576121a66139e4565b021790555060609190910151600390910155600880546001810182556000919091527ff3f7a9fe364faab93b216da50a3214154f22a0a2b415b23a84c8169e8b636ee30180546001600160a01b031916339081179091556004805460405163d0def52160e01b81526001600160a01b03919091169263d0def5219261222d92889101614a2f565b600060405180830381600087803b15801561224757600080fd5b505af115801561225b573d6000803e3d6000fd5b50506040516001600160a01b037f00000000000000000000000000000000000000000000000000000000000000001692503480156108fc029250906000818181858888f193505050501580156122b5573d6000803e3d6000fd5b507f8772c8819e99ebb9f69fe72d9a60c78de13a367140e9360b1a4f2fbe59d7204b33856040516122e7929190614a2f565b60405180910390a150505050565b6016818154811061230557600080fd5b906000526020600020906004020160009150905080600001805461232890614774565b80601f016020809104026020016040519081016040528092919081815260200182805461235490614774565b80156123a15780601f10612376576101008083540402835291602001916123a1565b820191906000526020600020905b81548152906001019060200180831161238457829003601f168201915b505050600184015460028501805494956001600160a01b039092169491935091506123cb90614774565b80601f01602080910402602001604051908101604052809291908181526020018280546123f790614774565b80156124445780601f1061241957610100808354040283529160200191612444565b820191906000526020600020905b81548152906001019060200180831161242757829003601f168201915b50505050509080600301805461245990614774565b80601f016020809104026020016040519081016040528092919081815260200182805461248590614774565b80156124d25780601f106124a7576101008083540402835291602001916124d2565b820191906000526020600020905b8154815290600101906020018083116124b557829003601f168201915b5050505050905084565b6124e4613537565b6001600160a01b0382166000908152600f6020526040902054829060ff166001816004811115612516576125166139e4565b146125345760405163b824136960e01b815260040160405180910390fd5b6001600160a01b0384166000908152600c602052604090205460ff161561256e5760405163773aeddd60e11b815260040160405180910390fd5b6001600160a01b0384166000908152600f602090815260408083208054600260ff199182168117909255600c84528285208054909116600117905560109092528083208151606081019092528054929392829082906125cc90614774565b80601f01602080910402602001604051908101604052809291908181526020018280546125f890614774565b80156126455780601f1061261a57610100808354040283529160200191612645565b820191906000526020600020905b81548152906001019060200180831161262857829003601f168201915b505050918352505060018201546001600160a01b0381166020830152604090910190600160a01b900460ff166004811115612682576126826139e4565b6004811115612693576126936139e4565b9052506001600160a01b038781166000908152600e60209081526040909120908301516002820180546001600160a01b031916919093161790915581519192509081906126e090826147f9565b506015805460018101825560009190915281906007027f55f448fdea98c4d29eb340757ef0a66cd03dbb9538908a6a81d96026b71ec47501806127238382614a53565b506001828101805461273892840191906136e9565b5060028281015490820180546001600160a01b0319166001600160a01b03909216919091179055600380830180546127739284019190613782565b506004828101805491830180546001600160a01b0319166001600160a01b03909316929092178255906005808401906127ae90860182614a53565b505050600682810180546127c59284019190613817565b5050600980546001810182556000919091527f6e1540171b6c0c960b71a7020d9f60077f6af931a8bbf590da0223dacf75c7af0180546001600160a01b0319166001600160a01b038a81169190911790915560035460405163d0def52160e01b81529116915063d0def521906128419033908a90600401614a2f565b600060405180830381600087803b15801561285b57600080fd5b505af115801561286f573d6000803e3d6000fd5b50506040516001600160a01b038a1681527f6ca6150407f26e90367ff690c8b617cad626020aa12080384e3b31479c0442fb9250602001905060405180910390a150505050505050565b336000908152600c602052604090205460ff166128eb5760405163349b3f2f60e21b8152336004820152602401610bbe565b336000818152600e602090815260409182902082518084019093528383529082018490526004810180546001600160a01b03191690931783559181906005840161293586826147f9565b505050505050565b60138181548110610f8157600080fd5b60606015805480602002602001604051908101604052809291908181526020016000905b828210156119b157838290600052602060002090600702016040518060c00160405290816000820180546129a490614774565b80601f01602080910402602001604051908101604052809291908181526020018280546129d090614774565b8015612a1d5780601f106129f257610100808354040283529160200191612a1d565b820191906000526020600020905b815481529060010190602001808311612a0057829003601f168201915b5050505050815260200160018201805480602002602001604051908101604052809291908181526020016000905b82821015612bb75783829060005260206000209060030201604051806060016040529081600082018054612a7e90614774565b80601f0160208091040260200160405190810160405280929190818152602001828054612aaa90614774565b8015612af75780601f10612acc57610100808354040283529160200191612af7565b820191906000526020600020905b815481529060010190602001808311612ada57829003601f168201915b50505050508152602001600182018054612b1090614774565b80601f0160208091040260200160405190810160405280929190818152602001828054612b3c90614774565b8015612b895780601f10612b5e57610100808354040283529160200191612b89565b820191906000526020600020905b815481529060010190602001808311612b6c57829003601f168201915b5050509183525050600291909101546001600160a01b03166020918201529082526001929092019101612a4b565b5050509082525060028201546001600160a01b0316602080830191909152600383018054604080518285028101850182528281529401939260009084015b82821015612d615783829060005260206000209060030201604051806060016040529081600082018054612c2890614774565b80601f0160208091040260200160405190810160405280929190818152602001828054612c5490614774565b8015612ca15780601f10612c7657610100808354040283529160200191612ca1565b820191906000526020600020905b815481529060010190602001808311612c8457829003601f168201915b50505050508152602001600182018054612cba90614774565b80601f0160208091040260200160405190810160405280929190818152602001828054612ce690614774565b8015612d335780601f10612d0857610100808354040283529160200191612d33565b820191906000526020600020905b815481529060010190602001808311612d1657829003601f168201915b5050509183525050600291909101546001600160a01b03166020918201529082526001929092019101612bf5565b50505090825250604080518082019091526004830180546001600160a01b0316825260058401805460209485019484019190612d9c90614774565b80601f0160208091040260200160405190810160405280929190818152602001828054612dc890614774565b8015612e155780601f10612dea57610100808354040283529160200191612e15565b820191906000526020600020905b815481529060010190602001808311612df857829003601f168201915b505050505081525050815260200160068201805480602002602001604051908101604052809291908181526020016000905b828210156130465783829060005260206000209060040201604051806080016040529081600082018054612e7a90614774565b80601f0160208091040260200160405190810160405280929190818152602001828054612ea690614774565b8015612ef35780601f10612ec857610100808354040283529160200191612ef3565b820191906000526020600020905b815481529060010190602001808311612ed657829003601f168201915b505050918352505060018201546001600160a01b03166020820152600282018054604090920191612f2390614774565b80601f0160208091040260200160405190810160405280929190818152602001828054612f4f90614774565b8015612f9c5780601f10612f7157610100808354040283529160200191612f9c565b820191906000526020600020905b815481529060010190602001808311612f7f57829003601f168201915b50505050508152602001600382018054612fb590614774565b80601f0160208091040260200160405190810160405280929190818152602001828054612fe190614774565b801561302e5780601f106130035761010080835404028352916020019161302e565b820191906000526020600020905b81548152906001019060200180831161301157829003601f168201915b50505050508152505081526020019060010190612e47565b505050508152505081526020019060010190612971565b601060205260009081526040902080548190611a2390614774565b6001600160a01b0381166000908152600d60205260409020600301548190428111156130b757604051631da7447960e21b815260040160405180910390fd5b6001600160a01b0383166000908152600b602052604090205460ff166130fb5760405163bfadfc2760e01b81526001600160a01b0384166004820152602401610bbe565b6001600160a01b038084166000908152600d602090815260408083208151608081019092528054909416815260018401805493949193919284019161313f90614774565b80601f016020809104026020016040519081016040528092919081815260200182805461316b90614774565b80156131b85780601f1061318d576101008083540402835291602001916131b8565b820191906000526020600020905b81548152906001019060200180831161319b57829003601f168201915b505050918352505060028281015460209092019160ff16908111156131df576131df6139e4565b60028111156131f0576131f06139e4565b81526020016003820154815250509050806060015142111561321b5760026040820152600060608201525b6001600160a01b038481166000908152600d60209081526040909120835181546001600160a01b0319169316929092178255820151829190600182019061326290826147f9565b5060408201518160020160006101000a81548160ff0219169083600281111561328d5761328d6139e4565b02179055506060820151816003015590505060006132aa8561364f565b905081601482815481106132c0576132c06149f8565b600091825260209182902083516004929092020180546001600160a01b0319166001600160a01b0390921691909117815590820151600182019061330490826147f9565b5060408201518160020160006101000a81548160ff0219169083600281111561332f5761332f6139e4565b021790555060609190910151600390910155600480548351604051639c85cd6b60e01b81526001600160a01b0391821693810193909352600092911690639c85cd6b90602401602060405180830381865afa158015613392573d6000803e3d6000fd5b505050506040513d601f19601f820116820180604052508101906133b69190614b2d565b600480548551604051632770a7eb60e21b81529394506001600160a01b0390911692639dc29fac926133ff92918691016001600160a01b03929092168252602082015260400190565b600060405180830381600087803b15801561341957600080fd5b505af115801561342d573d6000803e3d6000fd5b50505050505050505050565b336000908152600c602052604090205460ff1661346b5760405163349b3f2f60e21b8152336004820152602401610bbe565b336000818152600e6020908152604080832081516060810183528781528084018790529182019490945260018085018054918201815584529190922082518392600302909101908190611cec90826147f9565b6134c6613537565b6001600160a01b03811661352b5760405162461bcd60e51b815260206004820152602660248201527f4f776e61626c653a206e6577206f776e657220697320746865207a65726f206160448201526564647265737360d01b6064820152608401610bbe565b613534816135ff565b50565b6000546001600160a01b031633146118745760405162461bcd60e51b815260206004820181905260248201527f4f776e61626c653a2063616c6c6572206973206e6f7420746865206f776e65726044820152606401610bbe565b6001600160a01b0381166000908152600f6020526040812054829060ff1660018160048111156135c3576135c36139e4565b146135e15760405163b824136960e01b815260040160405180910390fd5b5050506001600160a01b031660009081526005602052604090205490565b600080546001600160a01b038381166001600160a01b0319831681178455604051919092169283917f8be0079c531659141344cd1fd0a4f28419497f9722a3daafe3b4186f6b6457e09190a35050565b6001600160a01b0381166000908152600b602052604081205460ff166136935760405163bfadfc2760e01b81526001600160a01b0383166004820152602401610bbe565b506001600160a01b031660009081526006602052604090205490565b5080546136bb90614774565b6000825580601f106136cb575050565b601f01602090049060005260206000209081019061353491906138c1565b8280548282559060005260206000209060030281019282156137725760005260206000209160030282015b82811115613772578282806137298382614a53565b5060018181019061373c90840182614a53565b50600291820154910180546001600160a01b0319166001600160a01b039092169190911790556003928301929190910190613714565b5061377e9291506138d6565b5090565b82805482825590600052602060002090600302810192821561380b5760005260206000209160030282015b8281111561380b578282806137c28382614a53565b506001818101906137d590840182614a53565b50600291820154910180546001600160a01b0319166001600160a01b0390921691909117905560039283019291909101906137ad565b5061377e929150613913565b8280548282559060005260206000209060040281019282156138b55760005260206000209160040282015b828111156138b5578282806138578382614a53565b5060018281015490820180546001600160a01b0319166001600160a01b0390921691909117905560028082019061389090840182614a53565b506003818101906138a390840182614a53565b50505091600401919060040190613842565b5061377e929150613950565b5b8082111561377e57600081556001016138c2565b8082111561377e5760006138ea82826136af565b6138f86001830160006136af565b506002810180546001600160a01b03191690556003016138d6565b8082111561377e57600061392782826136af565b6139356001830160006136af565b506002810180546001600160a01b0319169055600301613913565b8082111561377e57600061396482826136af565b6001820180546001600160a01b03191690556139846002830160006136af565b6139926003830160006136af565b50600401613950565b6001600160a01b038116811461353457600080fd5b80356139bb8161399b565b919050565b6000602082840312156139d257600080fd5b81356139dd8161399b565b9392505050565b634e487b7160e01b600052602160045260246000fd5b60058110613a0a57613a0a6139e4565b9052565b60208101613a1c82846139fa565b92915050565b600060208284031215613a3457600080fd5b5035919050565b634e487b7160e01b600052604160045260246000fd5b60405161018081016001600160401b0381118282101715613a7457613a74613a3b565b60405290565b604051608081016001600160401b0381118282101715613a7457613a74613a3b565b604051601f8201601f191681016001600160401b0381118282101715613ac457613ac4613a3b565b604052919050565b600082601f830112613add57600080fd5b81356001600160401b03811115613af657613af6613a3b565b613b09601f8201601f1916602001613a9c565b818152846020838601011115613b1e57600080fd5b816020850160208301376000918101602001919091529392505050565b60008083601f840112613b4d57600080fd5b5081356001600160401b03811115613b6457600080fd5b602083019150836020828501011115613b7c57600080fd5b9250929050565b63ffffffff8116811461353457600080fd5b80356139bb81613b83565b6001600160601b038116811461353457600080fd5b80356139bb81613ba0565b803560ff811681146139bb57600080fd5b6000806000806000806000806000806101008b8d031215613bf157600080fd5b8a356001600160401b0380821115613c0857600080fd5b613c148e838f01613acc565b9b5060208d0135915080821115613c2a57600080fd5b613c368e838f01613b3b565b909b509950899150613c4a60408e016139b0565b9850613c5860608e01613b95565b9750613c6660808e016139b0565b965060a08d0135915080821115613c7c57600080fd5b50613c898d828e01613b3b565b9095509350613c9c905060c08c01613bb5565b9150613caa60e08c01613bc0565b90509295989b9194979a5092959850565b60008060208385031215613cce57600080fd5b82356001600160401b03811115613ce457600080fd5b613cf085828601613b3b565b90969095509350505050565b60005b83811015613d17578181015183820152602001613cff565b50506000910152565b60008151808452613d38816020860160208601613cfc565b601f01601f19169290920160200192915050565b606081526000613d5f6060830186613d20565b8281036020840152613d718186613d20565b91505060018060a01b0383166040830152949350505050565b600080600060608486031215613d9f57600080fd5b83356001600160401b0380821115613db657600080fd5b613dc287838801613acc565b94506020860135915080821115613dd857600080fd5b613de487838801613acc565b93506040860135915080821115613dfa57600080fd5b50613e0786828701613acc565b9150509250925092565b8215158152604060208201526000613e2c6040830184613d20565b949350505050565b60038110613a0a57613a0a6139e4565b60006020808301818452808551808352604092508286019150828160051b87010184880160005b83811015613ed657888303603f19018552815180516001600160a01b0316845287810151608089860181905290613ea482870182613d20565b91505087820151613eb789870182613e34565b5060609182015194909101939093529386019390860190600101613e6b565b509098975050505050505050565b60008060408385031215613ef757600080fd5b8235613f028161399b565b91506020830135613f128161399b565b809150509250929050565b606081526000613f306060830186613d20565b6001600160a01b03851660208401529050613e2c60408301846139fa565b60018060a01b0381511682526000602082015160406020850152613e2c6040850182613d20565b606081526000613f886060830186613d20565b6001600160a01b03851660208401528281036040840152613fa98185613f4e565b9695505050505050565b60008060408385031215613fc657600080fd5b82356001600160401b0380821115613fdd57600080fd5b613fe986838701613acc565b93506020850135915080821115613fff57600080fd5b5061400c85828601613acc565b9150509250929050565b6001600160a01b038516815260806020820181905260009061403a90830186613d20565b90506140496040830185613e34565b82606083015295945050505050565b60808152600061406b6080830187613d20565b6001600160a01b0386166020840152828103604084015261408c8186613d20565b905082810360608401526140a08185613d20565b979650505050505050565b600080604083850312156140be57600080fd5b82356140c98161399b565b915060208301356001600160401b038111156140e457600080fd5b61400c85828601613acc565b60006020828403121561410257600080fd5b81356001600160401b0381111561411857600080fd5b613e2c84828501613acc565b60008151606084526141396060850182613d20565b9050602083015184820360208601526141528282613d20565b6040948501516001600160a01b03169590940194909452509092915050565b600081518084526020808501808196508360051b8101915082860160005b858110156141b95782840389526141a7848351614124565b9885019893509084019060010161418f565b5091979650505050505050565b600081518084526020808501808196508360051b8101915082860160005b858110156141b957828403895281516080815181875261420682880182613d20565b838901516001600160a01b0316888a0152604080850151898303828b015291935091506142338382613d20565b92505050606080830151925086820381880152506142518183613d20565b9a87019a95505050908401906001016141e4565b602080825282518282018190526000919060409081850190600581811b8701840188860187805b8581101561438e57603f198b8503018752825160c081518187526142b282880182613d20565b838d0151888203898f015280518083529193508d0191508c830190808a1b84018e01875b8281101561430957601f198683030184526142f2828651614124565b91508f850194508f840193506001810190506142d6565b508d86015194506143248e8b01866001600160a01b03169052565b60609450848601519350898103858b015261433f8185614171565b9450505050506080808301518783038289015261435c8382613f4e565b9250505060a0808301519250868203818801525061437a81836141c6565b988b0198955050509188019160010161428c565b50919a9950505050505050505050565b80516139bb81613b83565b80516139bb81613ba0565b805162ffffff811681146139bb57600080fd5b805161ffff811681146139bb57600080fd5b80516139bb8161399b565b60006001600160401b038211156143fd576143fd613a3b565b5060051b60200190565b600082601f83011261441857600080fd5b8151602061442d614428836143e4565b613a9c565b82815260059290921b8401810191818101908684111561444c57600080fd5b8286015b848110156144705780516144638161399b565b8352918301918301614450565b509695505050505050565b600080600083850361022081121561449257600080fd5b60808112156144a057600080fd5b6144a8613a7a565b85516144b381613b83565b815260208601516144c381613ba0565b602082015260408681015190820152606080870151908201529350610180607f1982018113156144f257600080fd5b6144fa613a51565b91506145086080870161439e565b825261451660a0870161439e565b602083015261452760c087016143b4565b604083015261453860e0870161439e565b606083015261010061454b8188016143b4565b608084015261012061455e8189016143c7565b60a0850152610140614571818a016143a9565b60c0860152610160614584818b0161439e565b60e0870152848a0151848701526101a08a0151838701526145a86101c08b016143d9565b828701526145b96101e08b016143d9565b90860152505050506102008501519092506001600160401b038111156145de57600080fd5b613e0786828701614407565b81835281816020850137506000828201602090810191909152601f909101601f19169091010190565b60006101208083526146278184018f613d20565b9050828103602084015261463c818d8f6145ea565b6001600160a01b038c8116604086015263ffffffff8c1660608601528a8116608086015284820360a086015290915061467682898b6145ea565b6001600160601b039790971660c085015260ff9590951660e0840152505091166101009091015298975050505050505050565b6001600160e01b03198316815281516000906146cc816004850160208701613cfc565b919091016004019392505050565b6001600160a01b03841681526001600160601b038316602082015260606040820181905260009061470d90830184613d20565b95945050505050565b60006020828403121561472857600080fd5b815180151581146139dd57600080fd5b634e487b7160e01b600052601160045260246000fd5b80820180821115613a1c57613a1c614738565b81810381811115613a1c57613a1c614738565b600181811c9082168061478857607f821691505b6020821081036147a857634e487b7160e01b600052602260045260246000fd5b50919050565b601f8211156147f457600081815260208120601f850160051c810160208610156147d55750805b601f850160051c820191505b81811015612935578281556001016147e1565b505050565b81516001600160401b0381111561481257614812613a3b565b614826816148208454614774565b846147ae565b602080601f83116001811461485b57600084156148435750858301515b600019600386901b1c1916600185901b178555612935565b600085815260208120601f198616915b8281101561488a5788860151825594840194600190910190840161486b565b50858210156148a85787850151600019600388901b60f8161c191681555b5050505050600190811b01905550565b6001600160a01b038416815260406020820181905260009061470d90830184866145ea565b600060208083850312156148f057600080fd5b82356001600160401b038082111561490757600080fd5b818501915085601f83011261491b57600080fd5b8135614929614428826143e4565b81815260059190911b8301840190848101908883111561494857600080fd5b8585015b838110156149eb578035858111156149645760008081fd5b86016080818c03601f190181131561497c5760008081fd5b614984613a7a565b898301356149918161399b565b8152604083810135898111156149a75760008081fd5b6149b58f8d83880101613acc565b8c84015250606080850135600381106149ce5760008081fd5b91830191909152919092013590820152835291860191860161494c565b5098975050505050505050565b634e487b7160e01b600052603260045260246000fd5b600061ffff808316818103614a2557614a25614738565b6001019392505050565b6001600160a01b0383168152604060208201819052600090613e2c90830184613d20565b818103614a5e575050565b614a688254614774565b6001600160401b03811115614a7f57614a7f613a3b565b614a8d816148208454614774565b6000601f821160018114614ac15760008315614aa95750848201545b600019600385901b1c1916600184901b178455614b26565b600085815260209020601f19841690600086815260209020845b83811015614afb5782860154825560019586019590910190602001614adb565b5085831015614b195781850154600019600388901b60f8161c191681555b50505060018360011b0184555b5050505050565b600060208284031215614b3f57600080fd5b505191905056fea2646970667358221220622ae0bfb84927b356b40e207183f6f64ec09a965120e58e0497840e84cf01fd64736f6c63430008110033",
    "linkReferences": {},
    "deployedLinkReferences": {}
}